:020000040800F2
:10000000101400200D3600081536000817360008B9
:10001000193600081B3600081D36000800000000D5
:100020000000000000000000000000001F36000873
:10003000213600080000000023360008253600089D
:10004000273600082736000827360008273600081C
:10005000273600082736000827360008273600080C
:1000600027360008273600082736000827360008FC
:1000700027360008273600082736000827360008EC
:1000800027360008273600082736000827360008DC
:1000900027360008273600082736000827360008CC
:1000A00027360008273600082736000827360008BC
:1000B00015020008273600082736000827360008F2
:1000C000273600082736000827360008273600089C
:1000D000273600082B0400084B06000827360008C6
:1000E000273600082736000827360008273600087C
:1000F000273600082736000827360008273600086C
:10010000273600082736000827360008273600085B
:100110002736000827360008C702000827360008DF
:10012000273600082736000827360008273600083B
:10013000273600082736000827360008273600082B
:10014000273600082736000827360008273600081B
:10015000273600082736000827360008273600080B
:1001600027360008273600082736000827360008FB
:1001700027360008273600082736000827360008EB
:100180002736000827360008DFF80CD006F0D2FD2D
:100190000048004731360008101400201CB501212A
:1001A000084602F019FE01208DF8040000208DF8A9
:1001B00006002020009001208DF8070003208DF814
:1001C00005006946034802F0C1FB2021014802F006
:1001D0003BFC1CBD000002400EB50121084602F0A8
:1001E0002EFE4FF0FF3001905320ADF800000020AC
:1001F000ADF80800ADF802000121880701F0A0FB6E
:1002000069464FF0804001F030FB0121880701F082
:10021000B5FB0EBD10B50121880701F0DEFF38B136
:100220000121880701F0EAFF0121880701F0D2FFD0
:1002300010BD4FF08042516A00BF4FF08042526AB9
:10024000521A8242F9D3704700B5034603E04FF4D7
:100250007A70FFF7EEFF1800A3F10103F7D100BD9C
:100260001FB50121102002F0EAFD36208DF80000B4
:1002700001208DF8010000208DF8020001208DF88A
:100280000300684600F0CBFF5320ADF804000020C7
:10029000ADF80600ADF80C0040F2E730029001A97D
:1002A0001C4801F0E2FA1FBD10B50121194801F008
:1002B00065FB01221146174801F078FF012115481E
:1002C00001F088FF10BD10B50121124801F085FF33
:1002D00048B101210F4801F091FF01210D4801F0C3
:1002E00079FF05F0A0FC10BD01460B4850F8210035
:1002F000094A503A42F821004FF08040426A0648CD
:1003000040F8212050F82100034A503A52F82120A9
:10031000801A7047001000406405002010B596B0A8
:1003200004460121084602F057FD0121102002F089
:1003300097FD0121880502F04FFD07220921FC48A5
:1003400002F08FFB07220A21F94802F08AFB4FF4E2
:10035000C060149002208DF854008DF855000020E4
:100360008DF8560001208DF8570014A9F04802F0CE
:10037000EDFA10940020ADF84400ADF84600ADF859
:100380004800ADF84C000C20ADF84A0010A9E9482F
:1003900000F0FEFF0121E74801F082F801228021F0
:1003A000E44801F02AF9012240F22551E14801F028
:1003B0002DF925208DF83C0002208DF83D0000200D
:1003C0008DF83E0001208DF83F000FA800F027FFB8
:1003D000D94802F03FFE00BFD74802F064FF002872
:1003E000FAD14FF000600090D248001D0190D34830
:1003F0000290402003900020049005904FF480600C
:10040000069000200790089009904FF480300A90E1
:1004100000200B9003200C9000200D900E90694658
:10042000C54802F0B9FE16B010BD10B540F2255116
:10043000C04801F026F950B140F22551BD4801F005
:1004400057F9BC488088C4B2204605F082F810BD38
:1004500070B506460D460021B74802F0D7FE4FF0B2
:100460002051B54802F04BFFB34802F0F2FEB44908
:10047000088000240AE0315DB24802780078401C10
:10048000B04B1870B0488154601CC4B2AC42F2DB6F
:1004900000240BE0AD480078A9490988401A20449F
:1004A000A949085CA5490855601CC4B2A448008845
:1004B0008442EFDB08E03019A1490988401A00782E
:1004C0009E490855601CC4B29D4800882844A0423B
:1004D000F1DC9C4800789D49087000BF964802F006
:1004E000E2FE0028FAD196480088284480B292495A
:1004F000091D08600121904802F088FE70BD10B50A
:1005000098B004460121480402F099FC012108201A
:1005100002F062FC0121480502F05EFC26208DF805
:10052000440000208DF845008DF8460001208DF82C
:10053000470011A800F073FE07220521844802F04D
:1005400090FA07220621824802F08BFA20200F90B1
:1005500002208DF840008DF8410000208DF8420007
:1005600001208DF843000FA9794802F0EFF94020EF
:100570000F9002208DF840008DF8410001208DF889
:10058000420000208DF843000FA9714802F0DEF907
:1005900014940020ADF85400ADF85600ADF85800A2
:1005A000ADF85C000C20ADF85A000020ADF8480012
:1005B000ADF84A004FF40070ADF84C000020ADF8E3
:1005C0004E0014A9634800F0E3FE12A9614800F050
:1005D00051FF012240F225515E4801F017F8012138
:1005E0005C4800F05DFF012280215A4801F005F8C7
:1005F000594802F02FFD00BF574802F054FE002872
:10060000FAD14FF0006000905248001D019053480D
:100610000290402003900020049005904FF48060E9
:10062000069000200790089009904FF480300A90BF
:1006300000200B9003200C9000200D900E90694636
:10064000454802F0A9FD18B010BD10B5414800881A
:1006500000F0080018B13F48001D0088C4B240F205
:1006600025513C4801F00DF858B140F22551394868
:1006700001F03EF83748001D0088C4B2204605F05E
:10068000B5F810BD70B506460D460021324802F09F
:10069000BDFD3349304802F032FE2F4802F0D9FD4B
:1006A0003049088000240AE0315D2F480278007844
:1006B000401C2D4B18702D488154601CC4B2AC42B4
:1006C000F2DB00240BE02A48007826490988401A0A
:1006D00020442649085C21490855601CC4B22148C1
:1006E00000888442EFDB08E030191E490988401A6F
:1006F00000781A490855601CC4B21A48008828447A
:10070000A042F1DC184800781949087000BF12486F
:1007100002F0C9FD0028FAD112480088284480B2AE
:100720000D49091D086001210B4802F06FFD70BDE5
:100730000000024000100140B8640240B4070020ED
:100740000400002001000020B40600200600002064
:10075000000C024000440040A0600240B40A0020A7
:10076000000020200800002003000020B409002021
:100770000A00002070B506460D460021384802F0F8
:1007800045FD3849364802F0BAFD354802F061FDB2
:100790003549088000240AE0315D34480278007849
:1007A000401C324B187032488154601CC4B2AC42B9
:1007B000F2DB00240BE02F4800782B490988401A0F
:1007C00020442B49085C2C490855601CC4B22648BB
:1007D00000888442EFDB08E0301923490988401A79
:1007E000007825490855601CC4B21F480088284479
:1007F000A042F1DC1D4800781E49087000BF18486F
:1008000002F051FD0028FAD117480088284480B230
:100810001349091D08600121114802F0F7FC70BD61
:1008200010B50446114801780078401C0F4A10703A
:100830000F4844541148008800F0800030B901226C
:1008400040F227710D480C3800F0E0FE10BD70B585
:1008500004460D46E0B2FFF7E3FF204670BD0000FE
:10086000A0600240000020200C00002003000020B7
:10087000B40900200E000020B40A00200C440040FF
:1008800010B54FF4806000F0C5FCFFF787FCFFF760
:10089000A3FC00F045FB00F005FAFFF7E1FC00F0D7
:1008A000ADFB4FF40051134802F0CCF84FF4E130A7
:1008B000FFF734FD4FF4E130FFF721FE05F012FFA2
:1008C00005F068FF00F02FF86420FFF7BDFC14204E
:1008D00002F0A2FF6420FFF7B7FC03F08BFB08B91E
:1008E000012000E000200449087000F02AFAFFF718
:1008F000DBFC10BD001002407C00002000BF00BFE8
:1009000000BF00BF00BF00BF00BF00BF00BFE34883
:10091000007838B90F2000BF0100A0F10102D0B269
:10092000FAD100BF70471CB50121022002F054FA31
:10093000C020009001208DF804008DF806000320EF
:100940008DF8050000208DF807006946D44801F0B5
:10095000FDFF1CBD00B58020D14918310880402022
:100960000880FFF7CBFFCE481030006808B901209F
:1009700000E0002000F0800008B1002000BD8020D1
:10098000C7491A310880FFF7B9FFC5481030006821
:1009900000F0800008B10020F0E78020C0491A3143
:1009A0000880FFF7ABFF0120E8E700B54020BC4915
:1009B0001A310880FFF7A2FF8020B9491A31088058
:1009C000FFF79CFF4020B64918310880FFF796FFDB
:1009D0008020B34918310880FFF790FF00BD00B5B3
:1009E0004020AF491A310880FFF788FF8020AC49CA
:1009F0001A310880FFF782FF4020A949183108808A
:100A0000FFF77CFF4020A6491A310880FFF776FFE8
:100A100000BD00B54020A2491A310880FFF76EFFE3
:100A200080209F4918310880FFF768FF40209C49CB
:100A300018310880FFF762FF402099491A31088079
:100A4000FFF75CFF00BD00B50023402094491A3138
:100A50000880FFF753FF8020914918310880FFF785
:100A60004DFF40208E4918310880FFF747FF07E00F
:100A7000581CC3B2322B03DDFFF797FF012000BDE6
:100A800087481030006800F080000028F0D1402036
:100A900083491A310880FFF731FF0020EFE710B5D6
:100AA000034608241BE040207D491A310880FFF7E7
:100AB00025FF03F0800020B180207949183108809B
:100AC00003E0802076491A3108805806030EFFF7AC
:100AD00015FF4020724918310880FFF70FFF2000F2
:100AE000A4F10101CCB2DED140206D491A31088059
:100AF00010BD30B504460825002380206849183110
:100B0000088015E05806030E402065491A31088018
:100B1000FFF7F4FE4020624918310880FFF7EEFE2F
:100B20005F481030006800F0800008B143F0010316
:100B30002800A5F10101CDB2E4D1402058491A3175
:100B4000088014B1FFF74BFF01E0FFF762FF184682
:100B500030BD70B504460D461646FFF7FBFE610634
:100B6000080EFFF79CFFFFF76EFF18B1FFF71DFFA0
:100B7000012070BD2846FFF792FFFFF764FF304663
:100B8000FFF78DFFFFF75FFFFFF70FFF0020F0E794
:100B900070B504460D461646FFF7DCFE6106080EEA
:100BA000FFF77DFFFFF74FFF18B1FFF7FEFE0120B3
:100BB00070BD2846FFF773FFFFF745FFFFF7CAFE3A
:100BC000012101EB4401C8B2FFF769FFFFF73BFFCA
:100BD0000020FFF78EFF3070FFF7E7FE0020E7E709
:100BE000F0B505460E4617461C46FFF7B3FE6906EC
:100BF000080EFFF754FFFFF726FF18B1FFF7D5FEE9
:100C00000120F0BD3046FFF74AFFFFF71CFF05E06B
:100C100014F8010BFFF743FFFFF715FF3800A7F1AA
:100C20000101CFB2F4D1FFF7C0FE0020E9E7F0B533
:100C300006460F4614461D46FFF78CFE7106080E49
:100C4000FFF72DFFFFF7FFFE18B1FFF7AEFE012003
:100C5000F0BD3846FFF723FFFFF7F5FEFFF77AFEFA
:100C6000012101EB4601C8B2FFF719FFFFF7EBFEC8
:100C70000DE0012C04D10020FFF73BFF287003E0BA
:100C80000120FFF736FF28706D1C601EC4B2002CD7
:100C9000EFD1FFF78AFE0020DAE700000F00002006
:100CA000000402401CB50121042002F095F8012146
:100CB000084602F091F80121022002F0C0F801215B
:100CC000082002F0BCF8C020009003208DF8050039
:100CD00002208DF8040001208DF80700694686483F
:100CE00001F034FE032000906946844801F02EFE96
:100CF00002220621804801F0B4FE022207217E482C
:100D000001F0AFFE022200217C4801F0AAFE02227F
:100D100001217A4801F0A5FE02231A4603217848F2
:100D200001F017FB0121764800F028FE02231A4645
:100D30000321744801F00DFB0121724800F01EFEF2
:100D40001CBD00206F49243108606D4924310860C2
:100D5000704710B52DED028B6A482430006800B250
:100D600008EE100A002067492431086064482430E6
:100D7000006800B208EE900A002061492431086042
:100D80000620FFF7B1FA00EE100AB8EE400ADFEDD8
:100D90005E0A80EE201A5D4880ED031A0720FFF7F7
:100DA000A3FA00EE100AB8EE400ADFED570A80EE13
:100DB000201A574880ED031AB8EEE80ADFED550A0D
:100DC00020EE200A514880ED040AB8EEC80ADFED93
:100DD000510A20EE200A4E4880ED040AB8EEE80AD7
:100DE000DFED4D0A20EE200ADFED4A0A20EE200A50
:100DF0004648D0ED030A80EE201A80ED001AB8EEC6
:100E0000C80ADFED450A20EE200ADFED420A20EE97
:100E1000200A3F48D0ED030A80EE201A80ED001A28
:100E20003A4890ED010AD0ED040A30EE200A80ED38
:100E3000010A374890ED010AD0ED040A30EE200A8D
:100E400080ED010A314890ED010ADFED340AB4EE7D
:100E5000E00AF1EE10FA0CDD90ED010ADFED2F0A49
:100E600030EE600A80ED010A8068401C27498860E6
:100E700013E0264890ED010AB5EEC00AF1EE10FA33
:100E80000BD290ED010ADFED250A30EE200A80ED4D
:100E9000010A8068401E1D4988601D4890ED010AC6
:100EA000DFED1E0AB4EEE00AF1EE10FA0CDD90ED73
:100EB000010ADFED1A0A30EE600A80ED010A80684F
:100EC000401C1349886013E0114890ED010AB5EE0B
:100ED000C00AF1EE10FA0BD290ED010ADFED0F0A15
:100EE00030EE200A80ED010A8068401E08498860C3
:100EF000BDEC028B10BD0000000802400000024063
:100F000000040040000C004000247449B40B002091
:100F1000C80B0020C54E6C3F34FA8E3C0000B44331
:100F200000B58BB006A800F0D4FC01A800F056FE76
:100F30000121084601F094FF0121102001F04CFF2F
:100F40004FF42060099002208DF8280003208DF8CE
:100F5000290000208DF82A0001208DF82B0009A916
:100F6000244801F0F3FC01220921224801F079FD17
:100F700001220B211F4801F074FD4FF47A70079095
:100F8000A720ADF818000020ADF82000ADF81A0039
:100F90008DF8220006A9184800F067FC6020ADF823
:100FA00004000020ADF80800ADF810000820ADF8EE
:100FB00012004001ADF814000020ADF81600012029
:100FC000ADF806000020039001A90B4800F0E2FCF8
:100FD00001A9094800F017FD0121074801F0BFF8F9
:100FE0000121054800F0ACFC0121034800F0C6FCDB
:100FF0000BB000BD00100240000001401CB50121F3
:10100000022001F0E9FE01208DF8040000208DF897
:1010100006000320009001208DF8070003208DF8C2
:10102000050069461A4801F091FC0121042001F0F5
:10103000D3FE4FF4805000906946164801F086FCBC
:101040000121082001F0C8FE0420009069461248E2
:1010500001F07CFC0121102001F0BEFE4FF4005095
:10106000009069460D4801F071FC0121084801F02B
:10107000EBFC0221064801F0E5FC4FF480510548E5
:1010800001F0E2FC0421044801F0DCFC1CBD00007E
:101090000004024000080240000C02400010024020
:1010A00001460878704701464E48814201D200202F
:1010B00070474D48814201D20820F9E74B488142F0
:1010C00001D21020F4E74A48814201D21820EFE70C
:1010D0004848814201D22020EAE74748814201D2B4
:1010E0002820E5E74548814201D23020E0E7444826
:1010F000814201D23820DBE74248814201D24020C0
:10110000D6E74148814201D24820D1E73F48814299
:1011100001D25020CCE75820CAE72DE9FC5F0446F5
:101120000D4690464FF008090120019000264FF02F
:10113000000A00274FF0000B00200090B4F1006F70
:1011400001D2BDE8FC9F01F073F9002001F053F9D2
:10115000264604EB080A3046FFF7A5FF83465046B3
:10116000FFF7A1FF00902A48864211D25F460BE0AC
:101170000221384601F0A8F98146B9F1080F02D0E2
:101180000020019003E0083700988742F0D900BFA3
:10119000B9F1080F0ED10AE02978204601F08FFA44
:1011A000082802D00020019003E0641C6D1C544507
:1011B000F2D300BF012001F01EF901F046F90198B9
:1011C000BFE72DE9F04107460D461646002405E02D
:1011D0003846FFF765FF28557F1C641CB442F7D3DF
:1011E000BDE8F081004000080080000800C0000851
:1011F00000000108000002080000040800000608C2
:101200000000080800000A0800000C0800000E0892
:101210000000FF1F32490143324A1160704770B528
:10122000002100230F22C4781CB32E4C246804F440
:10123000E064C4F5E064C4F30721C1F10404E3B23F
:101240000A4144789C40E1B28478144021430C0761
:10125000210E254C05786155047804F01F05012402
:10126000AC4005786D11AD0005F1E025C5F80041F1
:1012700009E0047804F01F050124AC401B4D0678FA
:10128000761145F8264070BD194A0A400243154BB5
:101290001B1F1A60704739B1124A121D12680243AF
:1012A000104B1B1D1A6006E00E4A121D1268824385
:1012B0000C4B1B1D1A607047042808D14FF0E02129
:1012C000096941F004014FF0E022116107E04FF09D
:1012D000E021096921F004014FF0E022116170471B
:1012E0000000FA050CED00E000E400E080E100E021
:1012F00080FFFF1F10B50446F748844208D1012142
:10130000102001F015FE0021102001F011FE3EE03A
:10131000F248844209D10121480401F0F8FD00217E
:101320004FF4003001F0F3FD31E0ED48844209D183
:101330000121880401F0EBFD00214FF4802001F031
:10134000E6FD24E0E748844209D10121C80401F008
:10135000DEFD00214FF4002001F0D9FD17E0E24846
:10136000844209D10121080501F0D1FD00214FF48B
:10137000801001F0CCFD0AE0DC48844207D1012155
:10138000202001F0D5FD0021202001F0D1FD10BD6D
:101390002DE9FF4705460E460024A14600BFA046A2
:1013A000B08900B100BF2C8A24F44054F088044373
:1013B0002C82AC8941F20C608443B08831890843A7
:1013C000718908430443AC81AC8A24F44074B08929
:1013D0000443AC82684601F06AFCBF48854202D0F3
:1013E000C248854202D1DDF80C9001E0DDF808909A
:1013F000A88900F4004040B109EBC90000EB0910D6
:1014000031684900B0FBF1F707E009EBC90000EBD8
:10141000091031688900B0FBF1F76420B7FBF0F0E8
:1014200004012009642101FB1078A88900F4004020
:1014300040B1322000EBC800B0FBF1F000F0070033
:10144000044308E0322000EB08106421B0FBF1F007
:1014500000F00F0004432C81BDE8FF874FF41651C4
:10146000016000218180C18001810C214181002126
:101470008181704710B502460020108A20F4706008
:101480000B884C8823438C882343CC882343184300
:10149000108210BD0021018041808180C180704791
:1014A00021B1828942F40052828104E082894DF6A2
:1014B000FF731A4082817047028B02F47F420283DD
:1014C000028B0A430283704721B1828942F40042B1
:1014D000828103E08289C2F30E028281704721B1CA
:1014E000828A42F40062828204E0828A4FF2FF73B1
:1014F0001A4082827047C1F3080282807047014619
:101500008888C0F308007047028A4FF6F0731A40CB
:101510000282028A0A430282704721B1828942F024
:101520000202828104E082894FF6FD731A408281B3
:10153000704782894FF2FF731A40828182890A4381
:1015400082817047028A4FF6DF731A400282028A54
:101550000A430282704721B1028A42F48042028229
:1015600004E0028A4BF6FF731A40028270478189B9
:1015700041F001018181704721B1828A42F0080265
:10158000828204E0828A4FF6F7731A4082827047A3
:10159000028BD2B20283028B42EA0122028370479D
:1015A00021B1828A42F02002828204E0828A4FF6D0
:1015B000DF731A408282704721B1828A42F01002A2
:1015C000828204E0828A4FF6EF731A40828270476B
:1015D000828A4FF6FB731A408282828A0A43828291
:1015E000704721B1828A42F00202828204E0828A3C
:1015F0004FF6FD731A40828270471AB1838A0B43FB
:10160000838202E0838A8B4383827047F0B503466E
:10161000002400260025002040F66A17B94200D1B8
:1016200000BF1846C1F3421401F01F06012707FA54
:1016300006F5012C01D10C3004E0022C01D1103050
:1016400000E014301AB107682F43076002E0076812
:10165000AF430760F0BD02460020B1F5007F00D126
:1016600000BF13880B400BB1012000E00020704741
:1016700001F40072B2F5007F00D100BFCA430280BE
:10168000704770B50246002400230025002040F674
:101690006A16B14200D100BFC1F3421501F01F0329
:1016A000012606FA03F3012D02D19689334006E0A4
:1016B000022D02D1168A334001E0968A33400C1283
:1016C000012606FA04F41688344013B10CB1012047
:1016D00000E0002070BD0000001001400044004008
:1016E00000480040004C0040005000400014014001
:1016F00010B50022002340F66A14A14200D100BFB9
:101700000A1201249440A3B2DC43048010BD0000FF
:1017100010B50446FE48844208D10121084601F074
:1017200007FC0021012001F003FC9DE0B4F1804F93
:1017300008D10121084601F0EAFB0021012001F057
:10174000E6FB91E0F348844208D10121022001F038
:10175000DEFB0021022001F0DAFB85E0EE48844246
:1017600008D10121042001F0D2FB0021042001F066
:10177000CEFB79E0E948844208D10121082001F03C
:10178000C6FB0021082001F0C2FB6DE0E448844262
:1017900008D10121102001F0BAFB0021102001F036
:1017A000B6FB61E0DF48844208D10121202001F02E
:1017B000AEFB0021202001F0AAFB55E0DA4884426C
:1017C00008D10121022001F0B3FB0021022001F029
:1017D000AFFB49E0D548844209D10121080401F05A
:1017E000A7FB00214FF4803001F0A2FB3CE0D04881
:1017F000844209D10121480401F09AFB00214FF4F1
:10180000003001F095FB2FE0CA48844209D1012144
:10181000880401F08DFB00214FF4802001F088FB4B
:1018200022E0C548844208D10121402001F06FFB2D
:101830000021402001F06BFB16E0C048844208D133
:101840000121802001F063FB0021802001F05FFB7B
:101850000AE0BB48844207D10121801501F057FB03
:101860000021A01501F053FB10BD00220288A84BF7
:1018700098420ED0AC4B98420BD0B0F1804F08D0BC
:10188000A44B984205D0A44B984202D0A34B984257
:1018900004D14FF68F731A404B881A43A04B9842DD
:1018A00007D0A04B984204D04FF6FF431A400B8953
:1018B0001A4302804B68C3620B880385944B98429D
:1018C00002D0994B984201D18B7A038601238382FF
:1018D00070474FF0FF31416000210180018141805C
:1018E000817270470185828270470A460021018813
:1018F0004FF68F7319401143018070474162704762
:10190000C16270470146486A70470146088D7047BA
:1019100021B1028842F00202028004E002884FF600
:10192000FD731A400280704721B1028842F0040220
:10193000028004E002884FF6FB731A400280704771
:1019400021B1028842F08002028004E002884FF652
:101950007F731A400280704702884FF6F7731A406F
:10196000028002880A430280704702884FF6FF43D4
:101970001A40028002880A430280704721B102881F
:1019800042F00102028004E002884FF6FE731A4022
:101990000280704770B5002400220023058C4FF6AA
:1019A000FE7635400584028C8388048B4FF68F7554
:1019B0002C40B51E2C400D882C43751E2A408D8965
:1019C0002A434D882A43524DA84202D0564DA84280
:1019D00013D14FF6F7752A40CD892A434FF6FB7590
:1019E0002A408D882A434FF6FF652B404FF6FF555E
:1019F0002B400D8A2B434D8A2B43838004838D68B3
:101A00004563028470BD70B5002400220023058C5C
:101A10004FF6EF7635400584028C8388048B48F6B8
:101A2000FF752C404FF6FF452C400D884FF6FF7692
:101A300006EA05252C434FF6DF752A408D8906EA14
:101A400005152A434D8806EA05152A43304DA8425C
:101A500002D0354DA8421DD14FF67F752A40CD8961
:101A60004FF6FF7606EA05152A434FF6BF752A4062
:101A70008D8806EA05152A434FF6FF352B404FF2B5
:101A8000FF752B400D8A06EA85052B434D8A06EA31
:101A900085052B43838004838D688563028470BD34
:101AA00070B5002400220023058C4FF6FF663540F8
:101AB0000584028C8388848B4FF68F752C404FF6FB
:101AC000FC752C400D882C434FF6FF552A408D891C
:101AD0004FF6FF7606EA05252A434D8806EA0525D6
:101AE0002A430B4DA84202D00F4DA84238D14FF2E5
:101AF000FF752A40CD894FF6FF7606EA05252A4371
:101B00004FF6FF352A408D8806EA05252A4319E05D
:101B1000000001400004004000080040000C0040AC
:101B2000001000400014004000040140004001404B
:101B3000004401400048014000180040001C0040E3
:101B4000002000404EF6FF752B404DF6FF752B40F0
:101B50000D8A06EA05152B434D8A06EA05152B4327
:101B6000838084838D68C563028470BD70B5002254
:101B700000230024058C4EF6FF7635400584038C47
:101B80008488828B48F6FF752A404FF6FF452A402D
:101B90000D884FF6FF7606EA05252A434DF6FF75B8
:101BA0002B408D8906EA05352B434D8806EA05351D
:101BB0002B43FE4DA84202D0FD4DA84208D14BF662
:101BC000FF752C400D8A4FF6FF7606EA85152C43EB
:101BD000848082838D680564038470BD0021018048
:101BE0004180818081608181C18101824182704711
:101BF00070B50346002000241846183001258D409A
:101C0000ACB21D8CA5431D8409B108290AD100EB93
:101C1000610005684FF68F7635400560056815430D
:101C200005600FE00D1FC5F34E052844056848F612
:101C3000FF763540056005684FF6FF7606EA022616
:101C40003543056070BD4163704781637047C16370
:101C50007047016470470A460021018B4FF68F736D
:101C600019401143018370470A460021018B48F651
:101C7000FF7319404FF6FF7303EA022319430183F0
:101C800070470A460021818B4FF68F73194011432C
:101C9000818370470A460021818B48F6FF73194003
:101CA0004FF6FF7303EA02231943818370470A4604
:101CB0000021018B4FF6F7731940114301837047E0
:101CC0000A460021018B4FF2FF7319404FF6FF7354
:101CD00003EA02231943018370470A460021818BDE
:101CE0004FF6F77319401143818370470A4600216C
:101CF000818B4FF2FF7319404FF6FF7303EA022303
:101D00001943818370470A460021018B4FF6FB730C
:101D100019401143018370470A460021018B4FF699
:101D2000FF3319404FF6FF7303EA0223194301837F
:101D300070470A460021818B4FF6FB73194011430F
:101D4000818370470A460021818B4FF6FF3319408B
:101D50004FF6FF7303EA02231943818370470A4653
:101D60000021018B4FF67F731940114301837047A7
:101D70000A460021018BC1F30E014FF6FF7303EAFF
:101D800002231943018370470A460021818B4FF6D5
:101D90007F7319401143818370470A460021818B6C
:101DA000C1F30E014FF6FF7303EA02231943818347
:101DB00070470A460021018C4FF6FD73194011430C
:101DC000018470470A460021018C4FF6F7731940D1
:101DD0001143018470470A460021018C4FF6DF73DE
:101DE00019404FF6FF7303EA021319430184704749
:101DF0000A460021018C4FF67F7319404FF6FF739E
:101E000003EA02131943018470470A460021018C3A
:101E10004FF6FF5319404FF6FF7303EA02231943AD
:101E2000018470470A460021018C4FF2FF7319406C
:101E30004FF6FF7303EA02231943018470470A46F1
:101E40000021018C4DF6FF7319404FF6FF7303EA32
:101E5000023319430184704730B5002301248C40BC
:101E6000A3B2048C9C430484048C02FA01F5ADB245
:101E70002C43048430BD30B5002304248C40A3B22D
:101E8000048C9C430484048C02FA01F5ADB22C430B
:101E9000048430BD828B4FF2FF331A408283828BE1
:101EA0004FF6FF7303EA01231A4382837047F0B5AC
:101EB0000C461546002100220026078C4EF6FF7CBA
:101EC00007EA0C070784818B028C4FF6FF7707EA3D
:101ED000043640F6FF4739404FF6FF7707EA0527FB
:101EE00039434FF6FF7707EA0337394345F6FF7763
:101EF0003A4046F480573A4381830284F0BD828B96
:101F00004FF6F3731A408283828B0A4382837047B1
:101F1000F0B50C461546002100220026078C4FF62E
:101F2000FF6C07EA0C070784818B028C4FF6FF7762
:101F300007EA04264FF60C7739404FF6FF7707EA99
:101F400003172F4339434FF2FF573A4046F4807747
:101F50003A4381830284F0BD028B4FF2FF331A4073
:101F60000283028B4FF6FF7303EA01231A430283B5
:101F70007047F0B50C461546002100220026078C5C
:101F80004FF6EF7C07EA0C070784018B028C4FF6B3
:101F9000FF7707EA041640F6FF4739404FF6FF7710
:101FA00007EA033739434FF6FF7703E000000140AB
:101FB0000004014007EA052739434FF65F773A40AE
:101FC00046F010073A4301830284F0BD028B4FF6BE
:101FD000F3731A400283028B0A4302837047F0B501
:101FE0000C46154600210022068C4FF6FE773E4037
:101FF0000684018B028C4FF60C7631407E1C06EA7B
:1020000003162E4331434FF6F576324044F0010675
:10201000324301830284F0BD70B505460C4620882A
:1020200050B92389A28861882846FFF7D8FFE18844
:102030002846FFF7CBFF25E0208804280AD1238912
:10204000A28861882846FFF794FFE1882846FFF7B9
:1020500083FF17E0208808280AD12389A288618895
:102060002846FFF755FFE1882846FFF748FF09E0BB
:102070002389A28861882846FFF719FFE18828464E
:10208000FFF708FF70BD00210180418001218180A0
:102090000021C180018170472DE9F04105460C46C1
:1020A00000260127608808B9022600E00026A088E3
:1020B000012801D1022700E001272088A0B9238947
:1020C000A28861882846FFF78AFFE1882846FFF743
:1020D0007DFF23893A4631462846FFF74AFFE188CB
:1020E0002846FFF739FF13E02389A2886188284634
:1020F000FFF73FFFE1882846FFF72EFF23893A4686
:1021000031462846FFF76BFFE1882846FFF75EFF60
:10211000BDE8F0810146486B70470146886B704707
:102120000146C86B70470146086C70470A884B88A7
:102130001A438B881A43CB881A430B891A434B895D
:102140001A438B891A43A0F844207047002101806C
:1021500041808180C180018141818181704731B19D
:10216000B0F8442042F40042A0F8442005E0B0F862
:102170004420C2F30E02A0F84420704721B18288A7
:1021800042F00402828004E082884FF6FB731A401A
:102190008280704721B1828842F00102828004E08F
:1021A00082884FF6FE731A40828070471AB1838985
:1021B0000B43838102E083898B4383817047818253
:1021C000704702460020138A0B400BB1012000E04B
:1021D00000207047CA430282704730B50246002093
:1021E00000230024158A05EA0103958905EA010404
:1021F00013B10CB1012000E0002030BDCA430282BF
:10220000704741EA0203A0F8483070471AB1838949
:102210000B43838102E083898B438381704721B123
:10222000828842F00802828004E082884FF6F773C9
:102230001A408280704701894FF6F872114001817F
:1022400070470A46002101894FF68F7319401143E8
:102250000181704730B504460D4629462046FFF7F8
:10226000F0FF208940F00700208130BD2DE9F041CA
:1022700004460D4616461F46602D06D13B460122F8
:1022800031462046FFF775FE05E03B460122314608
:102290002046FFF7A4FE29462046FFF7D2FF2089FB
:1022A00040F007002081BDE8F08130B50C460021E8
:1022B0000189C9B24FF6FF7505EA03251543254389
:1022C0002943018130BD2DE9F04105460E461746F0
:1022D0009846002443463A4631462846FFF7E5FF34
:1022E0002C894FF6F870044044F007044FF68F70C5
:1022F000044044F070042C81BDE8F081F0B5044640
:102300000D4616461F463B46324629462046FFF7F5
:10231000CCFF208940F480402081F0BD82884FF6B8
:102320008F731A40828082880A43828070470289B4
:102330004FF6F8731A40028102890A4302817047FE
:1023400002894FF67F731A40028102890A43028193
:102350007047F0B50C4615461E46002100220023AA
:102360000189028B038C4FF6F877394021434FF6F1
:10237000FC473A4040F201173A434FF6DD773B40C5
:102380004FF6FF7707EA06172F433B43018102838D
:102390000384F0BD21B1828842F08002828004E093
:1023A00082884FF67F731A4082807047A0F85010E1
:1023B00070470000FE4A1070704730B1FC49096850
:1023C00041F48071FA4A116005E0F949096821F485
:1023D0008071F74A1160704730B1F549096841F4DE
:1023E0000071F34A116005E0F149096821F40071B8
:1023F000EF4A1160704730B1ED49096841F48061DE
:10240000EB4A116005E0EA49096821F48061E84A75
:1024100011607047E648006840F40060E4490860D5
:102420007047E348006840F48050E1490860704715
:10243000DF481030006800F0004028B1DD48DC497A
:10244000091D0860DC4808607047D94810300068F2
:1024500040F00040D6491031086070470820D44948
:102460000C31096801F48031B1F5803F01D10120C0
:1024700018E0CF490C31096801F0100109B10520BD
:1024800010E0CB490C31096801F0EF0109B10620D9
:1024900008E0C7490C31096801F0020109B10720C1
:1024A00000E00820704708B508200090FFF7D6FF2D
:1024B000009002E0FFF7D2FF00909DF80000012895
:1024C000F8D09DF8000008BD70B504460A46002605
:1024D000082502B909E0012A01D1160205E0022A05
:1024E00001D1160201E04FF44076FFF7DCFF05460C
:1024F000082D2DD1AE481030006820F44070AC4952
:1025000010310860084600683043086008460068DB
:1025100020F0F80008600846006844F00201084313
:10252000A349103108600846006840F48030086014
:10253000FFF7B9FF05469E481030006820F0020002
:102540009B49103108600846006820F0F8000860D8
:10255000284670BD30B5024600250824FFF7A3FFCA
:10256000044602B909E0012A01D1150205E0022A58
:1025700001D1150201E04FF44075082C20D18C48A0
:102580001030006820F44070894910310860084616
:102590000068284308600846006840F004000860AE
:1025A0000846006840F480300860FFF77CFF04466E
:1025B0007F481030006820F004007D491031086029
:1025C000204630BD70B5064614461D460822FFF76A
:1025D0006AFF0246082A1ED175481030006820F4B0
:1025E00040707349103108600846006840F440703C
:1025F00008600846006840F00100086034607560BB
:10260000FFF751FF02466A481030006820F00100D1
:10261000674910310860104670BD30B502460C465F
:102620000825FFF740FF0546082D1DD160481030F2
:10263000006820F440705E49103108600846006868
:1026400040F4007008600846006840F0010008602F
:102650001460FFF728FF054655481030006820F049
:102660000100534910310860284630BD30B502469C
:102670000C460825FFF717FF0546082D1DD14C48CD
:102680001030006820F44070494910310860084655
:10269000006840F4807008600846006840F001005F
:1026A00008601480FFF7FFFE0546414810300068BF
:1026B00020F001003E4910310860284630BD30B599
:1026C00002460C460825FFF7EEFE0546082D1BD1F5
:1026D00037481030006820F44070354910310860E8
:1026E0000846006808600846006840F0010008607D
:1026F0001470FFF7D8FE05462D481030006820F012
:1027000001002B4910310860284630BD284814309C
:10271000006800F0010028B1284825490831086008
:1027200027480860704722481430006840F00100D4
:102730001F4914310860704730B502460C46082521
:10274000FFF7B1FE0546082D10D13CB118481630F0
:102750000088904316491631088007E01448163067
:10276000008891B2084312491631088030BD10B577
:1027700002460824FFF797FE0446082C02D10C48B5
:102780001530027010BDF0B504460D46FF2608272F
:10279000FFF789FE0746082F16D105481430007848
:1027A00000F00F0645EA060010432043004909E007
:1027B000003C024023016745AB89EFCD3B2A190855
:1027C0007F6E5D4C14310870F0BD2849097821F006
:1027D0000C01264A117011460978014311707047A7
:1027E00000B508222148007840F002001F49087017
:1027F000FFF759FE0246104600BD1C480068C0F3B2
:10280000471070471948801C0088704700201749FE
:10281000491C0978AA2901D0012000E00020704756
:102820001248007800F00C00704739B10F4A121FAF
:10283000126802430D4B1B1F1A6006E00B4A121F61
:1028400012688243094B1B1F1A6070470146002023
:10285000064A083A12680A400AB1012000E0002046
:10286000704702490839086070470000143C024074
:1028700010B504468C48844208D10121084600F076
:1028800000FB0021012000F0FCFA5EE08748844252
:1028900008D10121022000F0F4FA0021022000F00A
:1028A000F0FA52E08248844208D10121042000F06D
:1028B000E8FA0021042000F0E4FA46E07D48844272
:1028C00008D10121082000F0DCFA0021082000F0E6
:1028D000D8FA3AE07848844208D10121102000F06B
:1028E000D0FA0021102000F0CCFA2EE07348844288
:1028F00008D10121202000F0C4FA0021202000F09E
:10290000C0FA22E06E48844208D10121402000F044
:10291000B8FA0021402000F0B4FA16E06948844279
:1029200008D10121802000F0ACFA0021802000F0C5
:10293000A8FA0AE06448844207D10121801500F01A
:10294000A0FA0021A01500F09CFA10BDF0B50A46CF
:1029500000210023002400BF3DE0012505FA01F31A
:10296000156805EA03049C4234D105684F0003262C
:10297000BE40B543056015794E00B5400668354345
:1029800005601579012D02D01579022D16D18568C3
:102990004F000326BE40B543856055794E00B540D3
:1029A000866835438560456801268E40B54345609D
:1029B000456896798E40B6B235434560C5684F008C
:1029C0000326BE40B543C560D5794E00B540C66804
:1029D0003543C560491C1029BFD3F0BD4FF6FF71C8
:1029E00001600021017141718171C171704708B5A9
:1029F0004FF480320092009A0A430092009AC2611A
:102A0000C161009AC261C2690092C269009208BDA8
:102A10000246002013690B400BB1012000E00020AA
:102A200070470146086980B270470246002053692A
:102A30000B400BB1012000E00020704701464869BF
:102A400080B2704701837047418370470AB10183A8
:102A500000E0418370474161704742694A404261EA
:102A60007047F0B5002300244D07ED0E02FA05F380
:102A7000CE1000F1200555F826504E07F70E0F2610
:102A8000BE40B543CF1000F1200646F82750CE10C7
:102A900000F1200555F8265045EA0304CE1000F158
:102AA000200545F82640F0BD000002400004024029
:102AB00000080240000C02400010024000140240D6
:102AC00000180240001C024000200240FA48006842
:102AD00040F00100F84908600020F749083108601B
:102AE000F5480068F5490840F3490860F448091DB5
:102AF0000860081F006820F48020091F086000207B
:102B0000ED490C31086070470021EB4A921C1170AE
:102B100011460870704710B50146002200230020BE
:102B20004A11012A02D1E44C236808E0022A03D1A9
:102B3000E14C7034236802E0DF4C7434236801F008
:102B40001F02012494401C400CB1012000E0002031
:102B500010BD38B5002000900024002500BF3120B2
:102B6000FFF7D9FF05460098401C00900098B0F58B
:102B7000A06F01D0002DF2D03120FFF7CCFF08B1BB
:102B8000012400E00024204638BD01460020CA4A46
:102B9000106820F0F80040EAC10010607047C94991
:102BA000086070470021C44A70321170117001280A
:102BB00002D004280AD104E00121BF4A703211700A
:102BC00005E00521BC4A7032117000E000BF00BF73
:102BD0007047BD490860704770B5049C41EA821592
:102BE0000126C6EB530645EA0645054345EA04655A
:102BF000B14E361D356070BDB2490866704782011E
:102C000042EA0172AC4B84331A607047AD49886662
:102C10007047AC49C864704702460020A64B083391
:102C2000186820F0EC6042EA01031843A24B083315
:102C300018607047024600209F4B0833186820F048
:102C4000784042EA010318439B4B083318607047F1
:102C500001460020984A0832106820F0030008431B
:102C60001060704794480830006800F00C0070470E
:102C700001460020904A0832106820F0F000084316
:102C800010607047014600208B4A0832106820F41B
:102C9000E05008431060704701460020864A083221
:102CA000106820F4604040EAC10010607047F0B541
:102CB0000021002200240225002602237E4F08372F
:102CC0003F6807F00C0121B1042905D0082937D14C
:102CD00005E07E4F076036E07D4F076033E0764FBA
:102CE0003F1D3F68C7F38056734F3F1D3F6807F095
:102CF0003F036EB1764FB7FBF3F7DFF8BCC10CF1C1
:102D0000040CDCF800C0CCF3881C07FB0CF40CE0CE
:102D10006E4FB7FBF3F7DFF8A0C10CF1040CDCF841
:102D200000C0CCF3881C07FB0CF4634F3F1D3F68C9
:102D3000C7F301477F1C7D00B4FBF5F7076002E095
:102D4000624F076000BF00BF5B4F08373F6807F066
:102D5000F00109095F4F7A5C0768D7404760564F1A
:102D600008373F6807F4E051890A5A4F7A5C476890
:102D7000D7408760504F08373F6807F46041490BE0
:102D8000544F7A5C4768D740C760F0BD002100F41B
:102D90004072B2F5407F0AD1474A0832116821F4E7
:102DA000F8114D4A02401143434A08321160424A29
:102DB00070321268C0F30B031A433F4B70331A6032
:102DC000704741494439086070473F4940390860BD
:102DD000704742490860704739B1374A303212684B
:102DE0000243354B30331A6006E0334A3032126802
:102DF0008243314B30331A60704739B12E4A343236
:102E0000126802432C4B34331A6006E02A4A3432EB
:102E100012688243284B34331A60704739B1264A0E
:102E2000383212680243244B38331A6006E0224AD3
:102E3000383212688243204B38331A60704739B1F8
:102E40001D4A4032126802431B4B40331A6006E0B1
:102E5000194A403212688243174B40331A60704758
:102E600039B1154A443212680243134B44331A6095
:102E700006E0114A4432126882430F4B44331A6011
:102E8000704739B10C4A1032126802430A4B1033B2
:102E90001A6006E0084A103212688243064B10336B
:102EA0001A607047E1B1044A143212680243024BBF
:102EB00014331A6019E0000000380240FFFFF6FEEC
:102EC0001030002400004742800E47420024F400E6
:102ED00000127A0010000020FFFCFF0F5C01474247
:102EE0005B4A126882435A4B1A60704739B1584A9C
:102EF000121D12680243564B1B1D1A6006E0544A0D
:102F0000121D12688243524B1B1D1A60704739B163
:102F10004F4A0C32126802434D4B0C331A6006E0E4
:102F20004B4A0C3212688243494B0C331A6070478B
:102F300039B1474A103212680243454B10331A60C8
:102F400006E0434A103212688243414B10331A6044
:102F5000704739B13E4A3C32126802433C4B3C3325
:102F60001A6006E03A4A3C3212688243384B3C33DE
:102F70001A60704739B1364A403212680243344B06
:102F800040331A6006E0324A403212688243304BC6
:102F900040331A60704739B12D4A443212680243F7
:102FA0002B4B44331A6006E0294A443212688243AC
:102FB000274B44331A60704739B1254A4C321268A6
:102FC0000243234B4C331A6006E0214A4C3212680C
:102FD00082431F4B4C331A60704739B11C4A503240
:102FE000126802431A4B50331A6006E0184A5032F6
:102FF00012688243164B50331A60704739B1144A35
:10300000D21F12780243124BDB1F1A7006E0104ADF
:10301000D21F127882430E4BDB1F1A7070470C4888
:103020006030006840F08070094960310860704786
:1030300001460020064A083A12680A400AB10120F7
:1030400000E0002070470249891F087070470000A7
:1030500014380240016821F0010101600021016083
:1030600041608160C160016121214161DB49884289
:1030700004D13D21D94A103A91608CE0D7491831EA
:10308000884205D14FF47461D44A103A916082E0CD
:10309000D2493031884205D14FF47411CF4A103AE9
:1030A000916078E0CD494831884205D14FF0746194
:1030B000CA4A103A91606EE0C8496031884204D132
:1030C000C749C64A103AD16065E0C44978318842A0
:1030D00004D1C449C14A103AD1605CE0BF49903183
:1030E000884204D1C049BD4A103AD16053E0BB497F
:1030F000A831884205D14FF03D51B84A103AD1600D
:1031000049E0BA49884204D13D21B84A083A1160E1
:1031100041E0B6491831884205D14FF47461B34A91
:10312000083A116037E0B1493031884205D14FF497
:103130007411AE4A083A11602DE0AC49483188421A
:1031400005D14FF07461A94A083A116023E0A749FC
:103150006031884204D1A249A44A121F11601AE0CA
:10316000A2497831884204D19E49A04A121F1160B9
:1031700011E09E499031884204D19B499B4A121F1D
:10318000116008E09949A831884204D14FF03D51BF
:10319000964A121F1160704710B500220268944BC6
:1031A0001A40CC680B6823434C6923438C69234342
:1031B000CC6923430C6A23434C6A23438C6A234320
:1031C0004C6B23438C6B23431A430260426922F009
:1031D0000702D1E90B3423431A4342610B69436070
:1031E0004B6883608B68C36010BD00210160416043
:1031F0008160C160016141618161C16101624162BF
:103200008162C162016341638163704721B10268D9
:1032100042F00102026003E0026822F00102026053
:10322000704721B1026842F40042026003E0026884
:1032300022F400420260704721B1026842F020028D
:10324000026003E0026822F02002026070474160E1
:1032500070470146486880B2704722B1036843F462
:103260000023036003E0036823F40023036001618B
:10327000704721B1026842F48022026003E00268D4
:1032800022F48022026070470AB1016100E0C1604F
:103290007047014600200A6802F400220AB10120AA
:1032A00000E000207047014600200A6802F0010299
:1032B0000AB1012000E000207047014600204A6961
:1032C00002F03800704730B503460A46002000245B
:1032D000464DAB4202D24149103901E04349103911
:1032E00002F000550DB14C6800E00C68414D2C40D7
:1032F00004EA02050DB1012000E0002030BD0246C5
:103300003A4B9A4202D23548103801E0374810381B
:1033100001F000531BB1374B0B40C36002E0354B4B
:103320000B408360704710B501F080034BB122B1B0
:10333000436943F08003436103E0436923F0800362
:10334000436180290BD02AB1036801F01E04234396
:10335000036004E0036801F01E04A343036010BD92
:1033600070B50246002000240025204EB24202D251
:103370001A4B103B01E01D4B103B1F4E0E4036B167
:103380001E2606EAD124166806EA040502E05669FC
:1033900006F0800501F000560EB15C6800E01C6884
:1033A000144E344004EA010616B10DB1012000E0CC
:1033B000002070BD02460D4B9A4202D207481038D9
:1033C00001E00A48103801F000531BB1094B0B40D3
:1033D000C36002E0074B0B408360704710600240FF
:1033E0003D000020400F002000003D2010640240FE
:1033F0003F801CF07D0F7D0F3C0F3C0F0CB5002073
:10340000019000907648006840F48030744908606C
:1034100000BF7348006800F4003000900198401C21
:103420000190009818B90198B0F5A06FF1D16C48DF
:10343000006800F4003010B10120009001E000208D
:1034400000900098012846D165484030006840F05F
:1034500080506349403108606248006840F4804011
:10346000604908605E48083000685D4908310860BE
:103470000846006840F4004008600846006840F4D0
:10348000A05008605848091F0860081F006840F0F5
:103490008070091F086000BF5148006800F000708C
:1034A0000028F9D040F20560504908604C480830C7
:1034B000006820F003004A490831086008460068A7
:1034C00040F00200086000BF45480830006800F086
:1034D0000C000828F8D10CBD10B54548006840F430
:1034E0007000434908603E48006840F001003C49D4
:1034F000086000203A4908310860394800683D49B1
:103500000840374908603C48091D0860081F0068EA
:1035100020F48020091F0860002031490C31086028
:10352000FFF76CFF4FF0006031498039086010BD33
:1035300070B500200022022300240221284D083506
:103540002D6805F00C0020B1042806D0082834D1DD
:1035500007E02A4D2A4E356033E02A4D284E35606B
:103560002FE01F4D2D1D2D68C5F380541C4D2D1DC2
:103570002D6805F03F0154B1224DB5FBF1F5184E11
:10358000361D3668C6F3881605FB06F209E01B4DAA
:10359000B5FBF1F5124E361D3668C6F3881605FBED
:1035A00006F20F4D2D1D2D68C5F301456D1C6B00F6
:1035B000B2FBF3F5124E356003E0104D104E35604E
:1035C00000BF00BF064D08352D68C5F303150E4E2C
:1035D000705D0B4D2D68C540094E356070BD000013
:1035E000003802400070004008544007003C024090
:1035F00088ED00E0FFFFF6FE103000240024F40008
:103600002000002000127A00240000200648804795
:1036100006480047FEE7FEE7FEE7FEE7FEE7FEE7B7
:10362000FEE7FEE7FEE7FEE7D9340008890100085F
:10363000FDF726F90AE00648007820B10020044989
:10364000087003F0EAF83220FCF7FEFDF3E7000013
:10365000E600002010B50120FE490870FE4B0E2246
:103660003B216820FDF7E3FA10BDF8B506460F468A
:1036700014461D466B46012239463046FDF7D7FAFF
:103680002DB10120A0409DF80010084305E0012065
:10369000A0409DF8001021EA0000C0B200909DF803
:1036A000002039463046FDF754FA08B9012000E001
:1036B0000020EA490870F8BD2DE9F843074688461E
:1036C00014461D46089E6B46012241463846FDF7CA
:1036D000AEFA601CFF2101FA00F0C4F10801294490
:1036E000491EFF220A41104300F0FF09C5F10800FE
:1036F00006FA00F0C6B2C4F1070006419DF80000CA
:1037000000EA090000909DF80000304300909DF809
:10371000002041463846FDF71CFABDE8F88370B535
:1037200004464FF47A7090FBF4F0401EC5B22A466E
:1037300019216820FDF70DFA70BD38B50446032342
:1037400002226B2168200094FFF7B6FF38BD38B520
:103750000446022304221B2168200094FFF7ACFFDB
:103760000020032307221B2100906820FFF7A4FFFD
:1037700038BD38B50446022304221C216820009479
:10378000FFF79AFF0020032307221C2100906820E6
:10379000FFF792FF38BD10B50446234606226B2181
:1037A0006820FFF762FF10BD10B5044623460522CE
:1037B0006A216820FFF759FF10BD10B50446234663
:1037C000012237216820FFF750FF10BD38B50446AD
:1037D000032302221A2168200094FFF76DFF38BDF1
:1037E0001CB501210820FFF7F7FA80200090002087
:1037F0008DF8040003208DF8050000208DF80600E8
:1038000001208DF8070069469548FFF79FF8802151
:103810009348FFF717F91CBD70B504460125FFF763
:10382000DFFF2A2C15D006DC052C0CD00A2C0CD07E
:10383000142C16D10BE0622C0DD0BC2C0DD0B4F59D
:10384000807F0ED10BE006250DE005250BE0042559
:1038500009E0032507E0022505E0012503E0002536
:1038600001E0032500BF00BFFDF75DF80020FFF772
:1038700092FF0A20FCF7E8FC0320FFF75EFF0A2016
:10388000FCF7E2FC4FF47A70FFF749FF0A20FCF7DF
:10389000DBFC0320FFF75BFF0A20FCF7D5FC0220CE
:1038A000FFF767FF0A20FCF7CFFCE8B2FFF78EFFB7
:1038B0000A20FCF7C9FC0020FFF776FF0A20FCF77E
:1038C000C3FC0120FFF779FF0A20FCF7BDFC70BDA7
:1038D00010B56448007801287ED16248808810FBCA
:1038E00000F16048C288C08812FB00115D4802895F
:1038F000008912FB001000EE900AF8EEE00AB0EE2C
:10390000600A02F0F5FBDFED580AB4EEE00AF1EED2
:1039100010FA03D20120554908631FE051488088FE
:1039200010FB00F14F48C288C08812FB00114D48BF
:103930000289008912FB001000EE900AF8EEE00AFE
:10394000B0EE600A02F0D4FBDFED490AB4EEE00A03
:10395000F1EE10FA02DD0020444908634548008872
:10396000401C44490880444800683E49B1F90410AD
:10397000084441490860084641683A48B0F90600E1
:1039800008443D494860084681683648B0F9080057
:10399000A0F580500844384988600846806931495C
:1039A000B1F97410084434498861324800883228DB
:1039B0003DDB08460068322190FBF1F000EE100A72
:1039C000B8EEC00A274880ED0D0A2B48406890FBEE
:1039D000F1F000EE100A00E029E0B8EEC00A21483C
:1039E00080ED0E0A2448806890FBF1F000EE100A8A
:1039F000B8EEC00A1B4880ED0F0A1F48806990FB93
:103A0000F1F000EE100AB8EEC00A164880ED190A6F
:103A10000020184908801349087001F1340002F0B1
:103A20002FFE0020144988618860486008600D48B6
:103A3000407800287ED011480088401C0F4908803B
:103A40000D4800690749B1F90A1008440A4908619C
:103A5000084615E00F0000209C0C002034000020D8
:103A6000000C0240DC0B002000401C455C0C0020D8
:103A70000080224536000020AC0C002038000020D9
:103A8000C168FE48B0F90C000844FD49C86008460A
:103A90004169FA48B0F90E000844F94948610846FE
:103AA0008069F649B1F974100844F5498861F54810
:103AB0000088322844DB084690ED040AB8EEC00ABC
:103AC000DFEDF10A80EE201AEC4880ED101A08466E
:103AD00090ED030AB8EEC00ADFEDEB0A80EE201A83
:103AE000E64880ED111A084690ED050AB8EEC00AC6
:103AF000DFEDE50A80EE201AE04880ED121A084654
:103B00008069322190FBF1F000EE100AB8EEC00A95
:103B1000DA4880ED1A0A0020DA490880D748407850
:103B2000012803D1D548403002F0BBFD0020D34925
:103B3000487000E004E0D24988614861C8600861CB
:103B400010BD80ED000AC1ED000A82ED001A704739
:103B500010B52DED028B8AB0B0EE408A1C2103A86F
:103B600002F0B1FEFFF7B4FEC8484078C7490978B3
:103B700040EA012000B2C1498880C448C078C349E6
:103B8000897840EA012001B2BC48C180BF48407931
:103B9000BE49097940EA012001B2B8480181BB4819
:103BA000407ABA49097A40EA012000B2B349488113
:103BB000B648C07AB549897A40EA012001B2AF48D7
:103BC0008181B248407BB149097B40EA012001B2C2
:103BD000AA48C181B0F90A0000EE100AB8EEC00A86
:103BE0008DED000AA548B0F90C0000EE100AB8EE01
:103BF000C00A8DED010AA148B0F90E0000EE100ACE
:103C0000B8EEC00A8DED020AA048C0799F498979B3
:103C100040EA012000B29949A1F874000846B0F9C1
:103C2000740000EE100AB8EEC00A0846D0ED1E0A75
:103C300070EE600A90ED1E0A9FED951A28EE011AAB
:103C400001EE200A80ED1E0A90ED1E0ADFED910ABA
:103C500080EE201A9FED900A31EE000A80ED1F0AD7
:103C60008E480078401CC0B28C4908700A2805DDD7
:103C70000020087001208A4908700AE0874800780F
:103C80000A2801D1002002E084480078401C8449C1
:103C900008708448006B68BB7848B0F9040000EEF7
:103CA000100AB8EEC00A7548D0ED0D0A30EE600A71
:103CB0007D4880ED000A7148B0F9060000EE100A58
:103CC000B8EEC00A6D48D0ED0E0A30EE600A7648B4
:103CD00080ED010A6948B0F9080000EE100AB8EE5C
:103CE000C00A6648D0ED0F0A30EE600A6E4880EDDB
:103CF000020A3CE06148B0F9040000EE100AB8EE98
:103D0000C00A5E48D0ED0D0A30EE600AF0EE000AFF
:103D100020EE200A644880ED000A5848B0F90600F9
:103D200000EE100AB8EEC00A5448D0ED0E0A30EE8C
:103D3000600AF0EE000A20EE200A5B4880ED010ADE
:103D40004E48B0F9080000EE100AB8EEC00A4B4821
:103D5000D0ED0F0A30EE600ADFED540A30EE600A53
:103D6000F0EE000A20EE200A4F4880ED020A9DED99
:103D7000000A4248D0ED100A30EE600A4A4880ED51
:103D8000040A9DED010A3D48D0ED110A30EE600AAB
:103D9000454880ED030A9DED020A3848D0ED120A2D
:103DA00030EE600A404880ED050A90ED000ABDEE55
:103DB000C00A10EE100A01B23D48384A127820F8C5
:103DC0001210394890ED010ABDEEC00A10EE100A3B
:103DD00001B237481630314A127820F812103248B2
:103DE00090ED020ABDEEC00A10EE100A01B2304892
:103DF0002C302A4A127820F812102B4890ED040A31
:103E0000BDEEC00A10EE100A01B229485830234A0C
:103E1000127820F81210244890ED030ABDEEC00A73
:103E200010EE100A01B2224842301C4A127820F8E3
:103E300012101D4890ED050ABDEEC00A10EE100AE2
:103E400001B21B486E30154A127820F81210002477
:103E500046E0174931F914100398084403901448B8
:103E6000163030F9140004990844049010482C309E
:103E700030F914000599084405901BE0DC0B002084
:103E8000AC0C002038000020000048429C0C0020B0
:103E9000C3F5C8400000AA43000012423A000020C7
:103EA0003B0000205C0C0020640D00200000004559
:103EB000C80C00204B4830F91400079908440790BB
:103EC0004848163830F914000699084406904548C9
:103ED000163030F91400089908440890601CC4B2E8
:103EE0000A2CB6DB9DED030AB8EEC00AF2EE040A16
:103EF00080EE201A3C4880ED001A9DED040AB8EED1
:103F0000C00AF2EE040A80EE201A80ED011A9DED3F
:103F1000050AB8EEC00AF2EE040A80EE201A80ED1F
:103F2000021A9DED070AB8EEC00AF2EE040A80EE0E
:103F3000201A80ED041A9DED060AB8EEC00AF2EED2
:103F4000040A80EE201A80ED031A9DED080AB8EEEF
:103F5000C00AF2EE040A80EE201A80ED051AD0EDB8
:103F6000021AB0EE611AD0ED011AF0EE610AD0ED3E
:103F7000001AB0EE610A1D4A111F081FFFF7E1FD8C
:103F80001948D0ED051AB0EE611AD0ED031AF0EE23
:103F9000610AD0ED041AB0EE610A144A0C32111F06
:103FA000081FFFF7CEFD1148183890ED070ADFED26
:103FB000100A20EE200A80ED0A0A90ED080ADFEDD3
:103FC0000C0A20EE200A80ED0B0A90ED090ADFEDC5
:103FD000080A20EE200A80ED0C0A0AB0BDEC028B24
:103FE00010BD0000200D0020800D0020F40B0020EB
:103FF00098FA793D10B501220A210C20FCF7A9FDA1
:1040000010BD0EB5F0EE402AF0EE601AB0EE412A77
:10401000CDED002ACDED011A8DED022A9DED000AAD
:10402000DDED010A9DED021A0EBD10B5F7480078CE
:1040300000287CD0F648B0F90000002803DDF448E1
:10404000B0F9000003E0F248B0F900004042B0F5DA
:10405000C87F6DDAEE48B0F90200002803DDEC48B5
:10406000B0F9020003E0EA48B0F902004042B0F5BE
:10407000C87FEEDAE648B0F90400002803DDE44822
:10408000B0F9040003E0E248B0F904004042B0F5A2
:10409000C87FDEDADE48B0F9000000EE100AB8EEA4
:1040A000C00ADC48D0ED000AB4EEE00AF1EE10FAE6
:1040B00007DDD748B0F9000000EE100AB8EEC00ADC
:1040C00002E0D44890ED000AD24880ED000AD048C2
:1040D000B0F9020000EE100AB8EEC00ACD48D0EDEB
:1040E000010AB4EEE00AF1EE10FA07DDC848B0F9B3
:1040F000020000EE100AB8EEC00A02E0C54890EDDA
:10410000010AC44880ED010AC148B0F9040000EE7C
:10411000100AB8EEC00ABF48D0ED020AB4EEE00AB9
:10412000F1EE10FA0ADDBA48B0F9040001E0F2E05D
:10413000E4E000EE100AB8EEC00A02E0B54890EDE7
:10414000020AB44880ED020AB148B0F9000000EE5E
:10415000100AB8EEC00AB048D0ED000AB4EEE00A8A
:10416000F1EE10FA07D2AA48B0F9000000EE100AEA
:10417000B8EEC00A02E0A84890ED000AA64880ED1B
:10418000000AA348B0F9020000EE100AB8EEC00A17
:10419000A148D0ED010AB4EEE00AF1EE10FA07D220
:1041A0009B48B0F9020000EE100AB8EEC00A02E027
:1041B000994890ED010A984880ED010A9448B0F9B9
:1041C000040000EE100AB8EEC00A9348D0ED020ACF
:1041D000B4EEE00AF1EE10FA07D28D48B0F904000F
:1041E00000EE100AB8EEC00A02E08B4890ED020A19
:1041F000894880ED020A89480088B0F5FA6F7DD1C0
:10420000844890ED000A8448D0ED000A30EE200A80
:10421000F6EE000A20EE200ABDEEC00A10EE100AEB
:1042200000B200EE100AB8EEC00A794880ED020A2A
:10423000784890ED010A7848D0ED010A30EE200A66
:10424000F6EE000A20EE200ABDEEC00A10EE100ABB
:1042500000B200EE100AB8EEC00A6D4880ED030A05
:104260006C4890ED020A6C48D0ED020A30EE200A4C
:10427000F6EE000A20EE200ABDEEC00A10EE100A8B
:1042800000B200EE100AB8EEC00A614880ED040AE0
:10429000604890ED000A6048D0ED000A30EE600AF8
:1042A0005F4880ED000A5B4890ED010A5A48D0ED66
:1042B000010A30EE600A5A4880ED010A554890ED37
:1042C000020A5548D0ED020A30EE600A544880EDEB
:1042D000020A90ED000AD0ED010A80EE201A4C4847
:1042E00080ED061A4E4890ED000AD0ED020A80EEED
:1042F000201A474880ED071A083000E006E002F077
:10430000E2F9002045490880404908704348008888
:10431000401C4249088010BD1FB50020414908706B
:104320006A4603210C20FCF733FC0DF10102042145
:104330000C20FCF72DFC9DF800009DF8011040EAD0
:10434000012000B2ADF80A000DF1020205210C2097
:10435000FCF71EFC0DF1030206210C20FCF718FCF3
:104360009DF802009DF8031040EA012000B2ADF86C
:10437000080001AA07210C20FCF70AFC0DF1050238
:1043800008210C20FCF704FC9DF804009DF80510A2
:1043900040EA0120404200B2ADF80C00BDF8080030
:1043A0001B490880BDF80A004880BDF80C008880D1
:1043B0000846B0F9000000EE100AB8EEC00A084640
:1043C000D0ED020A30EE600A80ED080AB0F9020072
:1043D00000EE100AB8EEC00A0846D0ED030A30EE2F
:1043E000600A80ED090AB0F9040000EE100AB8EE88
:1043F000C00A0846D0ED040A30EE600A80ED0A0AD1
:10440000FFF713FEFFF7F6FD1FBD00007D00002043
:1044100050000020800000208C0000209800002028
:104420009C0D00200F000020054890ED080AD0EDFB
:10443000090A90ED0A1A704710B5FFF76DFF10BD1D
:104440005000002070B504460D461646D4ED020A11
:1044500060EEA00A94ED011AD4ED011A41EE210A92
:10446000B0EE600A01F044FEFE4880ED000AD4ED93
:10447000020A60EEA00A94ED001AD4ED001A41EE93
:10448000210AB0EE600A01F033FEF74880ED000A21
:1044900094ED020AB5EEC00AF1EE10FA02D24FF026
:1044A000FF3000E00120F149087095ED000AED4869
:1044B000D0ED000A60EE200A94ED001A084690F94B
:1044C000000000EE100AB8EEC00A21EE000A95EDD9
:1044D000021A40EE410AC6ED000A084690F90000B3
:1044E00000EE100AB8EEC00ADF48D0ED000A20EE58
:1044F000200AD5ED010A20EE200AD4ED010A95ED3F
:10450000021A00EEC10A86ED010A94ED000AD5ED0B
:10451000000A20EE200AD4ED010A95ED011A00EE02
:10452000810AD4ED020A95ED021A00EE810A86EDA9
:10453000020A70BD70B52DED0C8BB0EE408AB0EE66
:1045400060BAF0EE41BAB0EE61CAF0EE429AB0EE57
:10455000629AF0EE438A04460D4616469FEDC40A61
:1045600028EE000AF3EE040A20EE200AF0EE40AA3C
:10457000C048D0ED080A60EEA00A90ED091AD0ED0F
:10458000091A41EE210A90ED0A1AD0ED0A1A41EEFD
:10459000210AB0EE600A01F0ABFDB74880ED000AD9
:1045A00090ED000AB5EEC00AF1EE10FA38D0B1482D
:1045B000D0ED080AB04890ED001A80EE810AAF48AD
:1045C000D0ED000A70EE600A90ED000A0AEEA00A33
:1045D00080ED000AA748D0ED090AA74890ED001A1F
:1045E00080EE810AA548D0ED010A70EE600A90EDD8
:1045F000010A0AEEA00A80ED010A9E48D0ED0A0ADF
:104600009D4890ED001A80EE810A9C48D0ED020A88
:1046100070EE600A90ED020A0AEEA00A80ED020A2E
:10462000974A96499748FFF70DFF9548D0ED000A45
:1046300060EEA00A90ED011AD0ED011A41EE210AB8
:10464000B0EE600A01F054FD8F4880ED000A8C48FE
:1046500090ED000AB5EEC00AF1EE10FA36D090EDFA
:10466000010AB5EEC00AF1EE10FA2FD090ED020A61
:10467000B5EEC00AF1EE10FA28D0834890ED000A9A
:10468000B5EEC00AF1EE10FA20D07D4890ED000A98
:104690007D48D0ED000A80EE201AF0EE41CA78483D
:1046A00090ED010A7848D0ED000A80EE201AB0EEB5
:1046B00041DAF0EE6C0AB0EE4D0A01F05EFCDFED7F
:1046C000730A20EE200A724880ED000A714890EDCE
:1046D000010AD0ED030A20EE200AD0ED000A90ED89
:1046E000021A00EEC10AF0EE000A20EE200A654828
:1046F00080ED000A674890ED000AD0ED010A20EE37
:10470000200AD0ED020A90ED031A00EE810AF0EEC5
:10471000000A20EE200A5B4880ED010A5D4890ED1A
:10472000010A20EE000AD0ED020A90ED021A00EE16
:10473000810AF7EE000AB0EE001A41EE400A514835
:10474000C0ED020A5448007800285ED05248007834
:1047500002280CD19FED510A514880ED000A9FEDCF
:104760004F0A80ED010A9FED4D0A80ED020A4C4888
:1047700090ED000A434890ED001ADFED4A1AF0EE82
:10478000690A41EEC10A9FED481A60EE810A9FED69
:10479000471A00EE810A424880ED000A90ED010AB6
:1047A000384890ED011ADFED3F1AF0EE490A41EE6C
:1047B000C10A9FED3D1A60EE810A9FED3C1A00EEA2
:1047C000810A374880ED010A90ED020A2D4890EDEC
:1047D000021ADFED341AF0EE680A41EEC10A9FEDCD
:1047E000321A60EE810A9FED311A00EE810A2C48E0
:1047F00080ED020A28480078401C274908700846C6
:104800000078522801DB00200870254890ED000A4E
:104810001C4890ED001ADFED231AF0EE690A41EE14
:10482000C10A9FED211A11EE200A214880ED000AED
:104830001B4890ED010A134890ED011ADFED191A9B
:10484000F0EE490A41EEC10A9FED171A11EE200A57
:10485000174880ED010A124890ED020A094890EDD0
:10486000021A27E0D0000020D4000020CD00002054
:10487000C3F5C84050000020C8000020200E0020D2
:10488000F00D0020A80D0020C40000203333654245
:10489000DC000020A8000020CC0000200000000068
:1048A000140E0020000080455C201940CDCC4C3C0B
:1048B000080E00205FED051AF0EE680A41EEC10A0D
:1048C0001FED071A11EE200AFE4880ED020A90ED56
:1048D000000AFD48D0ED000A20EE200AF948D0ED8C
:1048E000010AF94890ED011A00EE810AF548D0ED71
:1048F000020AF54890ED021A00EE810AF34880EDB5
:10490000020A69EEA90A49EE090A48EEA80AB0EEC1
:10491000600A01F0EDFBEE4880ED000AF5EEC09A6A
:10492000F1EE10FA02DDB0EE690A01E0B1EE690ABB
:10493000DFEDE80AB4EEE00AF1EE10FA7DD2B5EE52
:10494000C09AF1EE10FA02DDB0EE490A01E0B1EED4
:10495000490ADFEDE00AB4EEE00AF1EE10FA78D28F
:10496000F5EEC08AF1EE10FA02DDB0EE680A01E061
:10497000B1EE680ADFEDD70AB4EEE00AF1EE10FA04
:1049800067D2D34890ED000AC9EE800AF0EE609A33
:1049900090ED000AC9EE000AB0EE609A90ED000AB0
:1049A000C8EE800AF0EE608A90ED000ADFEDCA0AD8
:1049B000B4EEE00AF1EE10FA54DD90ED000ADFEDFE
:1049C000C50AB4EEE00AF1EE10FA4BD2BE4890ED03
:1049D000020A20EE090AD0ED010A08EEE00ABF48FB
:1049E00080ED030AB84890ED000A20EE280AD0EDC9
:1049F000020A09EEE00AB94880ED040A1FED640AD4
:104A000028EE000AF7EE000A20EE20AA90ED030A35
:104A1000D0ED060A70EE600A90ED060A0AEE200A52
:104A200080ED060A90ED040AD0ED070A70EE600AE8
:104A300090ED070A0AEE200A00E00AE080ED070A7E
:104A400090ED060A80ED000A90ED070A80ED010A5C
:104A500008E01FED6E0AA14880ED000A1FED710A03
:104A600080ED010A9D4890ED090AD0ED000A1FED86
:104A7000751A60EE810AB0EE001A60EE810A00EE4F
:104A8000880A80ED090A90ED0A0AD0ED010A1FEDAF
:104A90007D1A60EE810AB0EE001A60EE810A00EE27
:104AA000880A80ED0A0A90ED0B0AD0ED020A1FED8C
:104AB000851A60EE810AB0EE001A60EE810A00EEFF
:104AC000880A80ED0B0A90ED090ADFED850AB4EE45
:104AD000E00AF1EE10FA02D29FED810A0FE07F4862
:104AE00090ED090ADFED7F0AB4EEE00AF1EE10FA6C
:104AF00002DD9FED7C0A02E0784890ED090A7748D4
:104B000080ED090A90ED0A0ADFED750AB4EEE00ABD
:104B1000F1EE10FA02D29FED720A0FE06F4890EDAD
:104B20000A0ADFED700AB4EEE00AF1EE10FA02DDD7
:104B30009FED6C0A02E0694890ED0A0A674880ED33
:104B40000A0A90ED0B0ADFED660AB4EEE00AF1EE18
:104B500010FA02D29FED620A0FE0604890ED0B0A56
:104B6000DFED600AB4EEE00AF1EE10FA02DD9FED2F
:104B70005D0A02E0594890ED0B0A584880ED0B0A97
:104B8000514890ED020AB5EEC00AF1EE10FA13DDBD
:104B90005548D0ED000A554890ED001A70EEC10A54
:104BA000B0EE600A01F0A2FCDFED510A20EE200A0F
:104BB000504880ED000A04E01FEDC80A4D4880ED22
:104BC000000A464890ED000AD0ED090A30EE200AAE
:104BD000DFED490A20EE200A3B4890ED001A4548D7
:104BE000D0ED001AF0EE4B0A41EE610A9FED431A38
:104BF00000EE810A394880ED0C0A90ED010AD0EDF3
:104C00000A0A30EE200ADFED3C0A20EE200A2E4888
:104C100090ED011A3748D0ED001AF0EE6B0A41EE24
:104C2000610A9FED361A00EE810A2C4880ED0D0ACC
:104C30002548D0ED020A2F4890ED001AB0EE4C0A3C
:104C400000EEC10ADFED2D0A20EE200A234880ED98
:104C50000E0A2B4890ED010AB1EE400A1F48D0ED34
:104C60000C0A20EE200A2648D0ED020A1B4890EDDF
:104C70000D1A00EEC10A2248D0ED030A174890ED44
:104C80000E1A00EEC10A1E48D0ED000A40EE080AD6
:104C9000C0ED000A90ED000A1048D0ED0C0A20EE9D
:104CA000200A1748D0ED020A0C4890ED0E1A00EECB
:104CB000810A1348D0ED030A084890ED0D1A00EE62
:104CC000C10A1FE0080E0020A80D0020FC0D0020E6
:104CD000B80000200080894500806D45B40D00209B
:104CE00034FA0EBD34FA0E3DDC000020A400002092
:104CF00090C2753DD80000209A99993E34FA8E3CB6
:104D0000A80000206B48D0ED010A40EE080AC0ED73
:104D1000010A90ED000A6848D0ED0D0A20EE200A45
:104D20006448D0ED010A644890ED0E1A00EEC10A05
:104D30006048D0ED030A604890ED0C1A00EE810A3D
:104D40005C48D0ED020A40EE080AC0ED020A90ED80
:104D5000000A5948D0ED0E0A20EE200A5548D0ED41
:104D6000010A554890ED0D1A00EE810A5148D0ED28
:104D7000020A514890ED0C1A00EEC10A4D48D0EDE0
:104D8000030A40EE080AC0ED030AD0ED000A60EE07
:104D9000A00A90ED011AD0ED011A41EE210A90ED22
:104DA000021AD0ED021A41EE210A90ED031AD0ED5D
:104DB000031A41EE210AB0EE600A01F099F93F486A
:104DC00080ED000A3B4890ED000A3C48D0ED000A17
:104DD00080EE201A374880ED001A90ED010A37481E
:104DE000D0ED000A80EE201A324880ED011A90EDD5
:104DF000020A3248D0ED000A80EE201A2D4880EDDC
:104E0000021A90ED030A2D48D0ED000A80EE201A18
:104E1000284880ED031A90ED011A21EE011AD0ED19
:104E2000021A90ED022A01EE821AF7EE001AB0EE95
:104E3000002A42EE411AF0EE610A90ED001AD0ED20
:104E4000011A21EE211AD0ED021A90ED032A01EE8B
:104E5000821AF0EE001A21EE211AB0EE410A01F09A
:104E60008CF8DFED170A20EE200A84ED000A1148C5
:104E7000D0ED010A90ED031A60EE810A90ED001A60
:104E8000D0ED021A41EE610AB0EE001A60EE810A1E
:104E9000B0EE600A01F0AEFFDFED090A20EE200A55
:104EA00085ED000A074890ED000A86ED000ABDEC8A
:104EB0000C8B70BDA8000020B40D0020BC000020A9
:104EC00033336542DC0000202DE9F0432DED048BE7
:104ED00083B0B0EE408AF0EE608AB0EE419A0646AA
:104EE0000F46904600240196A146AA222146641C42
:104EF000FE4842542146641C425401222146641C4F
:104F0000425400222146641C42549FEDF90A28EEC7
:104F1000000ABDEEC00A10EE100A00B202909DF821
:104F200009202146641CF14842549DF8082021467E
:104F3000641C42549FEDEE0A28EE800ABDEEC00AC2
:104F400010EE100A00B202909DF809202146641C60
:104F5000E64842549DF808202046611CCCB2E34943
:104F60000A549FEDE30A29EE000ABDEEC00A10EED6
:104F7000100A00B202909DF809202046611CCCB2B4
:104F8000DA490A549DF808202046611CCCB2D74962
:104F90000A549DF807202046611CCCB2D3490A541C
:104FA0009DF806202046611CCCB2D0490A549DF8D9
:104FB00005202046611CCCB2CC490A549DF804203F
:104FC0002046611CCCB2C9490A542046611CCCB2AF
:104FD000C6490F542046611CCCB2C44901F8008078
:104FE000201FC870002506E0C048405D484400F01E
:104FF000FF09681CC5B2A542F6DB2046611CCCB295
:10500000BA4901F800902146B848FBF73BFB03B0D2
:10501000BDEC048BBDE8F0832DE9F84F06460F4642
:1050200090469946DDF828B00024A246AA222146DF
:10503000641CAE4842542146641C4254022221465C
:10504000641C425400222146641C425400969DF880
:1050500001202146641C42549DF800202146641C16
:10506000425400979DF801202146641C42549DF84B
:1050700000202046611CCCB29C490A54CDF8008027
:105080009DF801202046611CCCB298490A549DF835
:1050900000202046611CCCB294490A54CDF80090FF
:1050A0009DF801202046611CCCB290490A549DF81D
:1050B00000202046611CCCB28C490A54CDF800B0C7
:1050C0009DF801202046611CCCB288490A549DF805
:1050D00000202046611CCCB284490A540B980090F1
:1050E0009DF801202046611CCCB280490A549DF8ED
:1050F00000202046611CCCB27C490A540C980090D8
:105100009DF801202046611CCCB278490A549DF8D4
:1051100000202046611CCCB274490A540D980090BE
:105120009DF801202046611CCCB270490A549DF8BC
:1051300000202046611CCCB26C490A540E980090A5
:105140009DF801202046611CCCB268490A549DF8A4
:1051500000202046611CCCB264490A540020009013
:105160009DF801202046611CCCB260490A549DF88C
:1051700000202046611CCCB25C490A54201FC87034
:10518000002506E05948405D504400F0FF0A681CC5
:10519000C5B2A542F6DB2046611CCCB2534901F8EA
:1051A00000A021465148FBF76DFABDE8F88FF0B535
:1051B0002DED0A8B81B00646B0EE408AF0EE608A93
:1051C000B0EE419AF0EE619AB0EE42AAF0EE62AA19
:1051D000B0EE43BAF0EE63BAB0EE44CA0024002742
:1051E000AA222146641C414842542146641C425470
:1051F00006F10F00C2B22146641C3C484254002212
:105200002146641C42549FED3B0A28EE000ABDEE85
:10521000C00A10EE100A00B200909DF8012021464D
:10522000641C324842549DF800202146641C4254BC
:105230009FED300A28EE800ABDEEC00A10EE100A7B
:1052400000B200909DF801202146641C274842547A
:105250009DF800202046611CCCB224490A549FEDE1
:10526000250A29EE000ABDEEC00A10EE100A00B2AF
:1052700000909DF801202046611CCCB21B490A54C5
:105280009DF800202046611CCCB218490A549FEDBD
:10529000190A29EE800ABDEEC00A10EE100A00B20B
:1052A00000909DF801202046611CCCB20F490A54A1
:1052B0009DF800202046611CCCB20C490A549FED99
:1052C0000D0A2AEE000ABDEEC00A10EE100A00B266
:1052D00000909DF801202046611CCCB203490A547D
:1052E0009DF800202046611CCCB205E02C0E002069
:1052F0000000C84200007A44FE490A541FED030A28
:105300002AEE800ABDEEC00A10EE100A00B200902C
:105310009DF801202046611CCCB2F6490A549DF844
:1053200000202046611CCCB2F2490A541FED0F0A3E
:105330002BEE000ABDEEC00A10EE100A00B200907B
:105340009DF801202046611CCCB2EA490A549DF820
:1053500000202046611CCCB2E6490A541FED1B0A0E
:105360002BEE800ABDEEC00A10EE100A00B20090CB
:105370009DF801202046611CCCB2DE490A549DF8FC
:1053800000202046611CCCB2DA490A541FED270ADE
:105390002CEE000ABDEEC00A10EE100A00B200901A
:1053A0009DF801202046611CCCB2D2490A549DF8D8
:1053B00000202046611CCCB2CE490A54201FC87080
:1053C000002505E0CB48405D3844C7B2681CC5B233
:1053D000A542F7DB2046611CCCB2C6490F542146DA
:1053E000C448FBF74FF901B0BDEC0A8BF0BD30B5F6
:1053F00085B004460A20B4FBF0F100FB114070B9FF
:10540000002211461046BC4B93ED001ABB4BD3ED66
:10541000000ABB4B93ED000AFFF756FD97E0601CB6
:105420000A21B0FBF1F201FB1200E8BBB54890ED98
:105430000A0ABDEEC00A10EE100A02B2B14890EDA1
:10544000090ABDEEC00A10EE100A00B2AD4991ED96
:10545000080ABDEEC00A10EE101A09B2AA4B93ED6D
:10546000090ABDEEC00A10EE103A1BB2CDE90131B7
:10547000CDE90302A44890ED080ABDEEC00A10EE83
:10548000100A00B2A04D009095ED070ABDEEC00ACB
:1054900010EE105A2BB29C4D95ED060ABDEEC00AD7
:1054A00010EE105A2AB200E012E0974D95ED050A71
:1054B000BDEEC00A10EE105A29B2934D95ED040AC4
:1054C000BDEEC00A10EE105A28B2FFF7A5FD3EE06F
:1054D000A01C0A21B0FBF1F201FB120080BB8B483B
:1054E000007860B38A48D0ED024AB0EE644AD0ED4D
:1054F000014AF0EE643AD0ED004AB0EE643A8548D5
:10550000D0ED024AF0EE642AD0ED014AB0EE642AF2
:10551000D0ED004AF0EE641A7F48D0ED024AB0EEBA
:10552000641AD0ED014AF0EE640AD0ED004AB0EE04
:10553000640A0120FFF73BFE00207449087006E072
:10554000FFE77648007810B100207449087005B074
:1055500030BD70472DE9F0412DED048B04460D461A
:105560000027002604E0A05D3844C7B2701CC6B214
:10557000681EB042F7DC601910F8010CB84203D085
:10558000BDEC048BBDE8F0812078AA2802D16078B8
:10559000AF2800D0F4E7A078012822D12079012893
:1055A00002D1594908701CE02079022803D101205A
:1055B0005549487015E02079032804D1012052494B
:1055C000087048700DE02079042803D10120544967
:1055D000087006E02079212802DB2079262800DDEA
:1055E00000BFA078022809D12079012801D14749BC
:1055F00008702079A12801D101F074F8A078102852
:1056000076D12179090209B2627941EA020001F0FA
:105610007EFA41EC190B9FED430B53EC102B01F07C
:1056200004FA41EC180B01F0B3FA3B490860A17988
:10563000090209B2E27941EA020001F068FA41EC9C
:10564000190B9FED380B53EC102B01F0EEF941ECE8
:10565000180B01F09DFA30494860217A090209B21D
:10566000627A41EA020001F052FA41EC190B9FED17
:105670002D0B53EC102B01F0D8F941EC180B01F075
:1056800087FA25498860A17A090209B2E27A41EADB
:10569000020001F03CFA41EC190B9FED220B53EC98
:1056A000102B01F0C2F941EC180B01F071FA194905
:1056B0000860217B090209B2627B41EA020001F025
:1056C00026FA41EC190B9FED170B53EC102B01F050
:1056D000ACF941EC180B01F05BFA0E494860A17B74
:1056E000090209B2E27B41EA020001F010FA1DE072
:1056F0006CE000002C0E0020A4000020A000002080
:105700009C00002050000020DC0B0020E000002066
:10571000900E0020AC0E0020C80E0020E3000020F8
:105720007D000020FCA9F1D24D62503F41EC190BE5
:105730001FED040B53EC102B01F077F941EC180B23
:1057400001F026FA5F498860217C090209B2627C77
:1057500041EA020001F0DBF941EC190B1FED0F0BE0
:1057600053EC102B01F061F941EC180B01F010FA29
:1057700055490860A17C090209B2E27C41EA0200B5
:1057800001F0C5F941EC190B1FED1A0B53EC102B6E
:1057900001F04BF941EC180B01F0FAF94A49486065
:1057A000217D090209B2627D41EA020001F0AFF9F0
:1057B00041EC190B1FED250B53EC102B01F035F9C3
:1057C00041EC180B01F0E4F93F498860A078032808
:1057D0000AD1A07A000200B2E17A08433B4908806E
:1057E00020213B48FDF739F900BFC9E610B5044652
:1057F0003848007838B9AA2C05D1012035490870FD
:10580000354804705DE033480078012807D1AF2C9B
:1058100005D102202F4908702F48447051E02D48CF
:105820000078022807D1F12C05DA032029490870F5
:105830002948847045E02748007803280CD1322C91
:105840000ADA0420234908702348C47023480470EE
:1058500000202349087034E01E480078042819D13C
:105860001E480078002815DD1C480078401E1B49A2
:1058700008701B4800781A490978491C184A1170A9
:10588000001D15490C5415480078D0B90520114960
:10589000087016E00F48007805280FD100200D4948
:1058A00008700F480078001D0B490C540C48007814
:1058B000401DC1B20848FFF74DFE02E00020054937
:1058C000087010BDAC0E0020900E0020E8000020F3
:1058D00000000240EC0000205E0E0020EA000020E4
:1058E000EB000020E848008801280AD19FEDE70A74
:1058F000E74880ED000AB9EE040AE64880ED000AA8
:1059000045E0E148008802280AD19FEDE00AE0481E
:1059100080ED000AB1EE040ADE4880ED000A36E0B0
:10592000D948008803280AD19FEDDB0AD84880EDCA
:10593000000A9FEDD60AD74880ED000A27E0D2483A
:10594000008804280AD19FEDD50AD14880ED000ACD
:105950009FEDCE0ACF4880ED000A18E0CA480088C3
:1059600005280AD19FEDC90AC94880ED000A9FEDBC
:10597000C70AC84880ED000A09E09FEDC40AC44880
:1059800080ED000A9FEDC10AC24880ED000A704711
:1059900010B52DED028B0120FAF7A6FC00EE100ADF
:1059A000B8EE400ADFEDBE0A80EE201AB0EE418A62
:1059B000FDF750FEB0EE480AFEF7CAF8B948D0ED40
:1059C000063AB0EE633AD0ED053AF0EE632AD0ED38
:1059D000043AB0EE632AD0ED0C3AF0EE631AD0ED43
:1059E0000B3AB0EE631AD0ED0A3AF0EE630AF6EE27
:1059F000003A68EE233AB0EE630AAB4AAB49AC48D2
:105A0000FEF798FDBDEC028B10BD10B52DED028B9D
:105A1000B0EE408AFBF79DF9A64890ED000AF0EE43
:105A2000401A9FEDA52AA549A548A64A92ED001A5D
:105A3000DFED960AB0EE480A00F068F9A24880ED62
:105A4000000A90ED000A9248D0ED000A30EE600A9C
:105A50009E4880ED000A9C4890ED000A8C48D0EDED
:105A6000000A30EE200A984880ED000A90ED000A06
:105A7000B5EEC00AF1EE10FA18D201219448FCF7F5
:105A8000E1FF02219248FCF7DFFF8F4890ED000A0A
:105A9000B1EE400A80ED000A4FF480518D48FCF7CA
:105AA000D1FF04218C48FCF7CFFF10E0012188488A
:105AB000FCF7CAFF02218648FCF7C4FF4FF480516F
:105AC0008448FCF7C1FF04218348FCF7BBFF7F48F3
:105AD00090ED000AB5EEC00AF1EE10FA10D24FF4C4
