:020000040800F2
:10000000801100201930000821300008233000083A
:1000100025300008273000082930000800000000C3
:100020000000000000000000000000002B3000086D
:100030002D300008000000002F300008313000088B
:100040003330000833300008333000083330000804
:1000500033300008333000083330000833300008F4
:1000600033300008333000083330000833300008E4
:1000700033300008333000083330000833300008D4
:1000800033300008333000083330000833300008C4
:1000900033300008333000083330000833300008B4
:1000A00033300008333000083330000833300008A4
:1000B00015020008333000083330000833300008E0
:1000C0003330000833300008333000083330000884
:1000D000333000089303000811050008333000088E
:1000E0003330000833300008333000083330000864
:1000F0003330000833300008333000083330000854
:100100003330000833300008333000083330000843
:100110003330000833300008C702000833300008CD
:100120003330000833300008333000083330000823
:100130003330000833300008333000083330000813
:100140003330000833300008333000083330000803
:1001500033300008333000083330000833300008F3
:1001600033300008333000083330000833300008E3
:1001700033300008333000083330000833300008D3
:100180003330000833300008DFF80CD006F0E4FA12
:10019000004800473D300008801100201CB50121B7
:1001A000084602F0F3FC01208DF8040000208DF8D1
:1001B00006002020009001208DF8070003208DF814
:1001C00005006946034802F09BFA2021014802F02D
:1001D00015FB1CBD000002400EB50121084602F0CF
:1001E00008FD4FF0FF3001905320ADF800000020D3
:1001F000ADF80800ADF802000121880701F07AFA95
:1002000069464FF0804001F00AFA0121880701F0A9
:100210008FFA0EBD10B50121880701F0B8FE38B184
:100220000121880701F0C4FE0121880701F0ACFE1E
:1002300010BD4FF08042516A00BF4FF08042526AB9
:10024000521A8242F9D3704700B5034603E04FF4D7
:100250007A70FFF7EEFF1800A3F10103F7D100BD9C
:100260001FB50121102002F0C4FC36208DF80000DB
:1002700001208DF8010000208DF8020001208DF88A
:100280000300684600F0A5FE5320ADF804000020EE
:10029000ADF80600ADF80C0040F2E730029001A97D
:1002A000114801F0BCF91FBD10B501210E4801F045
:1002B0003FFA012211460C4801F052FE01210A4882
:1002C00001F062FE10BD10B50121074801F05FFE8C
:1002D00048B10121044801F06BFE0121024801F000
:1002E00053FE05F0B6F910BD0010004010B588B0FF
:1002F00004460121084602F049FC0121102002F0C9
:1003000089FC07220921BF4802F085FA07220A2149
:10031000BC4802F080FA4FF4C060069002208DF8CD
:100320001C008DF81D0000208DF81E0001208DF8A6
:100330001F0006A9B34802F0E3F902940020ADF8CB
:100340000C00ADF80E00ADF81000ADF814000C2054
:10035000ADF8120002A9AC4800F0F4FE0121AA4851
:1003600000F078FF012240F22551A74801F028F85B
:1003700025208DF8040002208DF8050000208DF85E
:10038000060001208DF8070001A800F022FE08B049
:1003900010BD10B540F225519B4801F04CF850B10A
:1003A00040F22551984801F07DF897488088C4B202
:1003B000204604F0D4FD40F22771934801F03BF849
:1003C000A8B1924801780078401C904A107090487B
:1003D000405C8D498880104600788E4909788842B3
:1003E00005D18948808920F080008749888110BD27
:1003F00070B505460E4600240AE0295D854802785E
:100400000078401C834B187081488154601CC4B232
:10041000B442F2DB7C48808900F0800028B90122D8
:1004200040F22771784800F0CBFF70BD10B58AB05C
:1004300004460121480402F0DCFB0121082002F0FF
:10044000A5FB26208DF80C0000208DF80D008DF8FE
:100450000E0001208DF80F0003A800F0BAFD07225E
:1004600005216D4802F0D7F9072206216A4802F0FB
:10047000D2F92020019002208DF808008DF80900A3
:1004800000208DF80A0001208DF80B0001A96248B8
:1004900002F036F94020019002208DF808008DF816
:1004A000090001208DF80A0000208DF80B0001A939
:1004B000594802F025F906940020ADF81C00ADF86B
:1004C0001E00ADF82000ADF824000C20ADF822008D
:1004D0000020ADF81000ADF812004FF40070ADF838
:1004E00014000020ADF8160006A94C4800F02AFEC2
:1004F00004A94A4800F098FE012240F225514748DD
:1005000000F05EFF0121454800F0A4FE0AB010BDD6
:1005100010B54248008800F0080018B13F48001D9F
:100520000088C4B240F225513C4800F084FF58B125
:1005300040F22551394800F0B5FF3848001D0088C9
:10054000C4B2204604F05CFE40F22771334800F04C
:1005500072FFC0B1324801780078401C304A1070F8
:100560003048405C2D49091D0880104600782E490E
:100570000978884207D129480C30008820F0800093
:1005800026490C31088010BD70B505460E46002482
:100590000AE0295D244802780078401C224B18703C
:1005A00020488154601CC4B2B442F2DB1B480C30BA
:1005B000008800F0800028B9012240F22771174816
:1005C00000F0FEFE70BD10B50446174801780078B3
:1005D000401C154A10701348445410480C300088D1
:1005E00000F0800028B9012240F227710B4800F08A
:1005F000E7FE10BD70B504460D46E0B2FFF7E3FF1D
:10060000204670BD000002400010014000000020A4
:100610001806002001000020000C024000440040A9
:1006200002000020180800200300002010B54FF43D
:10063000806000F0C9FCFFF7B1FDFFF7CDFD00F0D1
:1006400049FB00F005FAFFF70BFE00F0B1FB4FF499
:100650000051134802F0D0F84FF4E130FFF746FEA6
:100660004FF4E130FFF7E2FE05F051FD05F0A7FD84
:1006700000F02FF86420FFF7E7FD142002F0D2FD10
:100680006420FFF7E1FD03F0BBF908B9012000E0A9
:1006900000200449087000F02AFAFFF705FE10BD9B
:1006A000001002407400002000BF00BF00BF00BF68
:1006B00000BF00BF00BF00BF00BFE348007838B9EB
:1006C0000F2000BF0100A0F10102D0B2FAD100BF9B
:1006D00070471CB50121022002F058FAC02000909A
:1006E00001208DF804008DF8060003208DF8050028
:1006F00000208DF807006946D44802F001F81CBDBF
:1007000000B58020D1491831088040200880FFF7CB
:10071000CBFFCE481030006808B9012000E000206F
:1007200000F0800008B1002000BD8020C7491A31C8
:100730000880FFF7B9FFC5481030006800F080005E
:1007400008B10020F0E78020C0491A310880FFF787
:10075000ABFF0120E8E700B54020BC491A31088012
:10076000FFF7A2FF8020B9491A310880FFF79CFFEC
:100770004020B64918310880FFF796FF8020B34922
:1007800018310880FFF790FF00BD00B54020AF4949
:100790001A310880FFF788FF8020AC491A310880A1
:1007A000FFF782FF4020A94918310880FFF77CFF3E
:1007B0004020A6491A310880FFF776FF00BD00B53A
:1007C0004020A2491A310880FFF76EFF80209F4920
:1007D00018310880FFF768FF40209C4918310880D5
:1007E000FFF762FF402099491A310880FFF75CFF4C
:1007F00000BD00B50023402094491A310880FFF75E
:1008000053FF8020914918310880FFF74DFF4020A9
:100810008E4918310880FFF747FF07E0581CC3B224
:10082000322B03DDFFF797FF012000BD8748103012
:10083000006800F080000028F0D1402083491A3180
:100840000880FFF731FF0020EFE710B503460824CA
:100850001BE040207D491A310880FFF725FF03F097
:10086000800020B1802079491831088003E0802081
:1008700076491A3108805806030EFFF715FF40200D
:10088000724918310880FFF70FFF2000A4F1010121
:10089000CCB2DED140206D491A31088010BD30B590
:1008A000044608250023802068491831088015E097
:1008B0005806030E402065491A310880FFF7F4FE00
:1008C0004020624918310880FFF7EEFE5F48103083
:1008D000006800F0800008B143F001032800A5F192
:1008E0000101CDB2E4D1402058491A31088014B139
:1008F000FFF74BFF01E0FFF762FF184630BD70B510
:1009000004460D461646FFF7FBFE6106080EFFF78C
:100910009CFFFFF76EFF18B1FFF71DFF012070BDB0
:100920002846FFF792FFFFF764FF3046FFF78DFF81
:10093000FFF75FFFFFF70FFF0020F0E770B50446F9
:100940000D461646FFF7DCFE6106080EFFF77DFF39
:10095000FFF74FFF18B1FFF7FEFE012070BD2846DC
:10096000FFF773FFFFF745FFFFF7CAFE012101EB19
:100970004401C8B2FFF769FFFFF73BFF0020FFF714
:100980008EFF3070FFF7E7FE0020E7E7F0B5054681
:100990000E4617461C46FFF7B3FE6906080EFFF722
:1009A00054FFFFF726FF18B1FFF7D5FE0120F0BD79
:1009B0003046FFF74AFFFFF71CFF05E014F8010B74
:1009C000FFF743FFFFF715FF3800A7F10101CFB292
:1009D000F4D1FFF7C0FE0020E9E7F0B506460F4668
:1009E00014461D46FFF78CFE7106080EFFF72DFF1B
:1009F000FFF7FFFE18B1FFF7AEFE0120F0BD38464D
:100A0000FFF723FFFFF7F5FEFFF77AFE012101EB69
:100A10004601C8B2FFF719FFFFF7EBFE0DE0012C0E
:100A200004D10020FFF73BFF287003E00120FFF70F
:100A300036FF28706D1C601EC4B2002CEFD1FFF78A
:100A40008AFE0020DAE700000400002000040240D3
:100A50001CB50121042002F099F80121084602F09A
:100A600095F80121022002F0C4F80121082002F0CB
:100A7000C0F8C020009003208DF8050002208DF8FA
:100A8000040001208DF807006946884801F038FE0F
:100A9000032000906946864801F032FE02220621BA
:100AA000824801F0B8FE02220721804801F0B3FE1F
:100AB000022200217E4801F0AEFE022201217C4884
:100AC00001F0A9FE02231A4603217A4801F01BFB1C
:100AD0000121784800F02CFE02231A4603217648B3
:100AE00001F011FB0121744800F022FE1CBD002022
:100AF0007149243108606F492431086070476E489D
:100B00002430006800B200EE100A00206A49243147
:100B1000086068482430006800B200EE900A0020A7
:100B2000644924310860654800696449C8604FF031
:100B30008040406A0861624800696149C8604FF0BE
:100B40008040406A0861B8EEE01ADFED5E1A21EEDF
:100B5000211A5A4880ED061AB8EEC01ADFED591A6C
:100B600021EE211A084680ED061A544800695349BF
:100B7000C968401A01EE100AF8EE411A9FED522A98
:100B800081EE821AF8EEE01A9FED502A61EE821A89
:100B90009FED4C2A61EE821A81EE812A474880ED52
:100BA000002A474800694649C968401A01EE100A00
:100BB000F8EE411A9FED442A81EE821AF8EEC01A2F
:100BC0009FED422A61EE821A9FED3E2A61EE821A63
:100BD00081EE812A3A4880ED002A384890ED011ACA
:100BE000D0ED061A31EE211A80ED011A344890ED4D
:100BF000011AD0ED061A31EE211A80ED011A2F48A4
:100C000090ED011ADFED321AB4EEE11AF1EE10FAAE
:100C10000CDD90ED011ADFED2E1A31EE611A80ED38
:100C2000011A8068401C2549886013E0234890ED34
:100C3000011AB5EEC01AF1EE10FA0BD290ED011ABE
:100C4000DFED231A31EE211A80ED011A8068401E73
:100C50001A4988601A4890ED011ADFED1D1AB4EEAA
:100C6000E11AF1EE10FA0CDD90ED011ADFED181A21
:100C700031EE611A80ED011A8068401C10498860CD
:100C800013E00F4890ED011AB5EEC01AF1EE10FA1C
:100C90000BD290ED011ADFED0E1A31EE211A80ED24
:100CA000011A8068401E06498860704700080240AB
:100CB0000000024000040040000C00401809002021
:100CC00034090020C54E6C3F0024744934FA8E3C30
:100CD0000000B44300B58BB006A800F0D4FC01A816
:100CE00000F056FE0121084601F094FF012110207A
:100CF00001F04CFF4FF42060099002208DF828008D
:100D000003208DF8290000208DF82A0001208DF89D
:100D10002B0009A9244801F0F3FC012209212248F3
:100D200001F079FD01220B211F4801F074FD4FF401
:100D30007A700790A720ADF818000020ADF82000C9
:100D4000ADF81A008DF8220006A9184800F067FCDB
:100D50006020ADF804000020ADF80800ADF81000E8
:100D60000820ADF812004001ADF814000020ADF8E5
:100D700016000120ADF806000020039001A90B48E1
:100D800000F0E2FC01A9094800F017FD0121074825
:100D900001F0BFF80121054800F0ACFC0121034837
:100DA00000F0C6FC0BB000BD001002400000014086
:100DB0001CB50121022001F0E9FE01208DF804009C
:100DC00000208DF806000320009001208DF8070018
:100DD00003208DF8050069461A4801F091FC0121B5
:100DE000042001F0D3FE4FF480500090694616486D
:100DF00001F086FC0121082001F0C8FE04200090CB
:100E00006946124801F07CFC0121102001F0BEFE71
:100E10004FF40050009069460D4801F071FC01212B
:100E2000084801F0EBFC0221064801F0E5FC4FF414
:100E30008051054801F0E2FC0421044801F0DCFC8B
:100E40001CBD00000004024000080240000C0240EB
:100E50000010024001460878704701464E48814222
:100E600001D2002070474D48814201D20820F9E7A5
:100E70004B48814201D21020F4E74A48814201D216
:100E80001820EFE74848814201D22020EAE747488E
:100E9000814201D22820E5E74548814201D2302035
:100EA000E0E74448814201D23820DBE742488142F2
:100EB00001D24020D6E74148814201D24820D1E703
:100EC0003F48814201D25020CCE75820CAE72DE9A3
:100ED000FC5F04460D4690464FF008090120019042
:100EE00000264FF0000A00274FF0000B0020009072
:100EF000B4F1006F01D2BDE8FC9F01F073F900204E
:100F000001F053F9264604EB080A3046FFF7A5FF27
:100F100083465046FFF7A1FF00902A48864211D22F
:100F20005F460BE00221384601F0A8F98146B9F18D
:100F3000080F02D00020019003E008370098874294
:100F4000F0D900BFB9F1080F0ED10AE02978204688
:100F500001F08FFA082802D00020019003E0641C01
:100F60006D1C5445F2D300BF012001F01EF901F0C1
:100F700046F90198BFE72DE9F04107460D461646B0
:100F8000002405E03846FFF765FF28557F1C641CE8
:100F9000B442F7D3BDE8F0810040000800800008AB
:100FA00000C000080000010800000208000004085A
:100FB000000006080000080800000A0800000C08ED
:100FC00000000E080000FF1F32490143324A116041
:100FD000704770B5002100230F22C4781CB32E4C3B
:100FE000246804F4E064C4F5E064C4F30721C1F1AB
:100FF0000404E3B20A4144789C40E1B2847814408E
:1010000021430C07210E254C05786155047804F026
:101010001F050124AC4005786D11AD0005F1E025F8
:10102000C5F8004109E0047804F01F050124AC4034
:101030001B4D0678761145F8264070BD194A0A40C6
:101040000243154B1B1F1A60704739B1124A121D1B
:1010500012680243104B1B1D1A6006E00E4A121D57
:10106000126882430C4B1B1D1A607047042808D17C
:101070004FF0E021096941F004014FF0E0221161D5
:1010800007E04FF0E021096921F004014FF0E02270
:10109000116170470000FA050CED00E000E400E08B
:1010A00080E100E080FFFF1F10B50446F74884424E
:1010B00008D10121102001F015FE0021102001F0BF
:1010C00011FE3EE0F248844209D10121480401F0BA
:1010D000F8FD00214FF4003001F0F3FD31E0ED4860
:1010E000844209D10121880401F0EBFD00214FF475
:1010F000802001F0E6FD24E0E748844209D1012187
:10110000C80401F0DEFD00214FF4002001F0D9FDFC
:1011100017E0E248844209D10121080501F0D1FD20
:1011200000214FF4801001F0CCFD0AE0DC4884423D
:1011300007D10121202001F0D5FD0021202001F060
:10114000D1FD10BD2DE9FF4705460E460024A146FE
:1011500000BFA046B08900B100BF2C8A24F44054DF
:10116000F08804432C82AC8941F20C608443B0883F
:1011700031890843718908430443AC81AC8A24F463
:101180004074B0890443AC82684601F06AFCBF48F1
:10119000854202D0C248854202D1DDF80C9001E0C0
:1011A000DDF80890A88900F4004040B109EBC900BF
:1011B00000EB091031684900B0FBF1F707E009EBDB
:1011C000C90000EB091031688900B0FBF1F7642019
:1011D000B7FBF0F004012009642101FB1078A88915
:1011E00000F4004040B1322000EBC800B0FBF1F049
:1011F00000F00700044308E0322000EB08106421EF
:10120000B0FBF1F000F00F0004432C81BDE8FF8734
:101210004FF41651016000218180C18001810C21B1
:10122000418100218181704710B502460020108A5B
:1012300020F470600B884C8823438C882343CC882F
:1012400023431843108210BD00210180418081801A
:10125000C180704721B1828942F40052828104E04A
:1012600082894DF6FF731A4082817047028B02F427
:101270007F420283028B0A430283704721B1828935
:1012800042F40042828103E08289C2F30E0282812D
:10129000704721B1828A42F40062828204E0828A2D
:1012A0004FF2FF731A4082827047C1F308028280B6
:1012B000704701468888C0F308007047028A4FF6DD
:1012C000F0731A400282028A0A430282704721B1F7
:1012D000828942F00202828104E082894FF6FD7326
:1012E0001A408281704782894FF2FF731A408281CF
:1012F00082890A4382817047028A4FF6DF731A405F
:101300000282028A0A430282704721B1028A42F4B1
:101310008042028204E0028A4BF6FF731A40028286
:101320007047818941F001018181704721B1828A32
:1013300042F00802828204E0828A4FF6F7731A4074
:1013400082827047028BD2B20283028B42EA012270
:101350000283704721B1828A42F02002828204E037
:10136000828A4FF6DF731A408282704721B1828AE7
:1013700042F01002828204E0828A4FF6EF731A4034
:1013800082827047828A4FF6FB731A408282828A79
:101390000A438282704721B1828A42F0020282822D
:1013A00004E0828A4FF6FD731A40828270471AB1B8
:1013B000838A0B43838202E0838A8B438382704754
:1013C000F0B50346002400260025002040F66A17E9
:1013D000B94200D100BF1846C1F3421401F01F0604
:1013E000012707FA06F5012C01D10C3004E0022C8C
:1013F00001D1103000E014301AB107682F430760A4
:1014000002E00768AF430760F0BD02460020B1F577
:10141000007F00D100BF13880B400BB1012000E01A
:101420000020704701F40072B2F5007F00D100BFC8
:10143000CA430280704770B502460024002300258D
:10144000002040F66A16B14200D100BFC1F3421538
:1014500001F01F03012606FA03F3012D02D196893C
:10146000334006E0022D02D1168A334001E0968A0D
:1014700033400C12012606FA04F41688344013B1E6
:101480000CB1012000E0002070BD00000010014000
:101490000044004000480040004C00400050004024
:1014A0000014014010B50022002340F66A14A14246
:1014B00000D100BF0A1201249440A3B2DC4304808F
:1014C00010BD000010B50446FE48844208D1012139
:1014D000084601F007FC0021012001F003FC9DE01B
:1014E000B4F1804F08D10121084601F0EAFB002148
:1014F000012001F0E6FB91E0F348844208D101218C
:10150000022001F0DEFB0021022001F0DAFB85E081
:10151000EE48844208D10121042001F0D2FB0021D1
:10152000042001F0CEFB79E0E948844208D1012192
:10153000082001F0C6FB0021082001F0C2FB6DE08D
:10154000E448844208D10121102001F0BAFB0021B7
:10155000102001F0B6FB61E0DF48844208D1012190
:10156000202001F0AEFB0021202001F0AAFB55E075
:10157000DA48844208D10121022001F0B3FB0021A6
:10158000022001F0AFFB49E0D548844209D1012196
:10159000080401F0A7FB00214FF4803001F0A2FB0A
:1015A0003CE0D048844209D10121480401F09AFB73
:1015B00000214FF4003001F095FB2FE0CA4884422F
:1015C00009D10121880401F08DFB00214FF4802016
:1015D00001F088FB22E0C548844208D10121402067
:1015E00001F06FFB0021402001F06BFB16E0C048CA
:1015F000844208D10121802001F063FB002180207A
:1016000001F05FFB0AE0BB48844207D1012180154D
:1016100001F057FB0021A01501F053FB10BD002283
:101620000288A84B98420ED0AC4B98420BD0B0F138
:10163000804F08D0A44B984205D0A44B984202D0CA
:10164000A34B984204D14FF68F731A404B881A432C
:10165000A04B984207D0A04B984204D04FF6FF43CE
:101660001A400B891A4302804B68C3620B880385BA
:10167000944B984202D0994B984201D18B7A0386C1
:101680000123838270474FF0FF31416000210180C8
:1016900001814180817270470185828270470A46CC
:1016A000002101884FF68F73194011430180704764
:1016B00041627047C16270470146486A70470146FF
:1016C000088D704721B1028842F00202028004E0D6
:1016D00002884FF6FD731A400280704721B10288DC
:1016E00042F00402028004E002884FF6FB731A40C5
:1016F0000280704721B1028842F08002028004E03B
:1017000002884FF67F731A400280704702884FF6B6
:10171000F7731A40028002880A43028070470288E9
:101720004FF6FF431A40028002880A430280704746
:1017300021B1028842F00102028004E002884FF6E3
:10174000FE731A400280704770B500240022002307
:10175000058C4FF6FE7635400584028C8388048B19
:101760004FF68F752C40B51E2C400D882C43751EEE
:101770002A408D892A434D882A43524DA84202D0DF
:10178000564DA84213D14FF6F7752A40CD892A430A
:101790004FF6FB752A408D882A434FF6FF652B4094
:1017A0004FF6FF552B400D8A2B434D8A2B438380E8
:1017B00004838D684563028470BD70B500240022E7
:1017C0000023058C4FF6EF7635400584028C838824
:1017D000048B48F6FF752C404FF6FF452C400D88D2
:1017E0004FF6FF7606EA05252C434FF6DF752A40B3
:1017F0008D8906EA05152A434D8806EA05152A4310
:10180000304DA84202D0354DA8421DD14FF67F750C
:101810002A40CD894FF6FF7606EA05152A434FF692
:10182000BF752A408D8806EA05152A434FF6FF3515
:101830002B404FF2FF752B400D8A06EA85052B439E
:101840004D8A06EA85052B43838004838D68856372
:10185000028470BD70B5002400220023058C4FF671
:10186000FF6635400584028C8388848B4FF68F7524
:101870002C404FF6FC752C400D882C434FF6FF553D
:101880002A408D894FF6FF7606EA05252A434D88C2
:1018900006EA05252A430B4DA84202D00F4DA84267
:1018A00038D14FF2FF752A40CD894FF6FF7606EA10
:1018B00005252A434FF6FF352A408D8806EA05257F
:1018C0002A4319E0000001400004004000080040E5
:1018D000000C0040001000400014004000040140D3
:1018E0000040014000440140004801400018004011
:1018F000001C0040002000404EF6FF752B404DF6C6
:10190000FF752B400D8A06EA05152B434D8A06EA22
:1019100005152B43838084838D68C563028470BD65
:1019200070B5002200230024058C4EF6FF7635406A
:101930000584038C8488828B48F6FF752A404FF615
:10194000FF452A400D884FF6FF7606EA05252A4313
:101950004DF6FF752B408D8906EA05352B434D88E2
:1019600006EA05352B43FE4DA84202D0FD4DA842A4
:1019700008D14BF6FF752C400D8A4FF6FF7606EA2C
:1019800085152C43848082838D680564038470BD33
:10199000002101804180818081608181C18101823B
:1019A0004182704770B50346002000241846183065
:1019B00001258D40ACB21D8CA5431D8409B10829B9
:1019C0000AD100EB610005684FF68F76354005605F
:1019D0000568154305600FE00D1FC5F34E0528444B
:1019E000056848F6FF763540056005684FF6FF76D6
:1019F00006EA02263543056070BD41637047816386
:101A00007047C1637047016470470A460021018B2B
:101A10004FF68F7319401143018370470A46002126
:101A2000018B48F6FF7319404FF6FF7303EA022358
:101A30001943018370470A460021818B4FF68F734B
:101A400019401143818370470A460021818B48F673
:101A5000FF7319404FF6FF7303EA02231943818392
:101A600070470A460021018B4FF6F7731940114366
:101A7000018370470A460021018B4FF2FF73194022
:101A80004FF6FF7303EA02231943018370470A46A6
:101A90000021818B4FF6F773194011438183704702
:101AA0000A460021818B4FF2FF7319404FF6FF73F6
:101AB00003EA02231943818370470A460021018B00
:101AC0004FF6FB7319401143018370470A4600210A
:101AD000018B4FF6FF3319404FF6FF7303EA0223E1
:101AE0001943018370470A460021818B4FF6FB732F
:101AF00019401143818370470A460021818B4FF6BC
:101B0000FF3319404FF6FF7303EA02231943818321
:101B100070470A460021018B4FF67F73194011432D
:101B2000018370470A460021018BC1F30E014FF675
:101B3000FF7303EA02231943018370470A46002119
:101B4000818B4FF67F7319401143818370470A469A
:101B50000021818BC1F30E014FF6FF7303EA0223CC
:101B60001943818370470A460021018C4FF6FD73AB
:101B700019401143018470470A460021018C4FF639
:101B8000F77319401143018470470A460021018C04
:101B90004FF6DF7319404FF6FF7303EA0213194340
:101BA000018470470A460021018C4FF67F7319406B
:101BB0004FF6FF7303EA02131943018470470A4684
:101BC0000021018C4FF6FF5319404FF6FF7303EAD3
:101BD00002231943018470470A460021018C4FF209
:101BE000FF7319404FF6FF7303EA02231943018480
:101BF00070470A460021018C4DF6FF7319404FF6DD
:101C0000FF7303EA023319430184704730B50023A0
:101C100001248C40A3B2048C9C430484048C02FAFB
:101C200001F5ADB22C43048430BD30B5002304244B
:101C30008C40A3B2048C9C430484048C02FA01F50A
:101C4000ADB22C43048430BD828B4FF2FF331A4077
:101C50008283828B4FF6FF7303EA01231A43828348
:101C60007047F0B50C461546002100220026078C6F
:101C70004EF6FF7C07EA0C070784818B028C4FF637
:101C8000FF7707EA043640F6FF4739404FF6FF7703
:101C900007EA052739434FF6FF7707EA0337394349
:101CA00045F6FF773A4046F480573A4381830284F1
:101CB000F0BD828B4FF6F3731A408283828B0A4306
:101CC00082837047F0B50C4615460021002200269D
:101CD000078C4FF6FF6C07EA0C070784818B028C98
:101CE0004FF6FF7707EA04264FF60C7739404FF698
:101CF000FF7707EA03172F4339434FF2FF573A4064
:101D000046F480773A4381830284F0BD028B4FF220
:101D1000FF331A400283028B4FF6FF7303EA01235D
:101D20001A4302837047F0B50C4615460021002285
:101D30000026078C4FF6EF7C07EA0C070784018B1F
:101D4000028C4FF6FF7707EA041640F6FF4739404A
:101D50004FF6FF7707EA033739434FF6FF7703E083
:101D6000000001400004014007EA052739434FF60F
:101D70005F773A4046F010073A4301830284F0BD92
:101D8000028B4FF6F3731A400283028B0A430283DD
:101D90007047F0B50C46154600210022068C4FF620
:101DA000FE773E400684018B028C4FF60C76314064
:101DB0007E1C06EA03162E4331434FF6F576324079
:101DC00044F00106324301830284F0BD70B505463C
:101DD0000C46208850B92389A28861882846FFF7DD
:101DE000D8FFE1882846FFF7CBFF25E020880428AC
:101DF0000AD12389A28861882846FFF794FFE188E9
:101E00002846FFF783FF17E0208808280AD1238996
:101E1000A28861882846FFF755FFE1882846FFF72A
:101E200048FF09E02389A28861882846FFF719FF47
:101E3000E1882846FFF708FF70BD0021018041803E
:101E4000012181800021C180018170472DE9F0418D
:101E500005460C4600260127608808B9022600E0E6
:101E60000026A088012801D1022700E00127208850
:101E7000A0B92389A28861882846FFF78AFFE188F4
:101E80002846FFF77DFF23893A4631462846FFF76B
:101E90004AFFE1882846FFF739FF13E02389A2882B
:101EA00061882846FFF73FFFE1882846FFF72EFFAD
:101EB00023893A4631462846FFF76BFFE1882846DA
:101EC000FFF75EFFBDE8F0810146486B70470146B1
:101ED000886B70470146C86B70470146086C7047B5
:101EE0000A884B881A438B881A43CB881A430B897C
:101EF0001A434B891A438B891A43A0F84420704730
:101F00000021018041808180C180018141818181E6
:101F1000704731B1B0F8442042F40042A0F84420A8
:101F200005E0B0F84420C2F30E02A0F84420704748
:101F300021B1828842F00402828004E082884FF658
:101F4000FB731A408280704721B1828842F00102FF
:101F5000828004E082884FF6FE731A4082807047C8
:101F60001AB183890B43838102E083898B43838188
:101F700070478182704702460020138A0B400BB1E4
:101F8000012000E000207047CA430282704730B54C
:101F90000246002000230024158A05EA01039589E2
:101FA00005EA010413B10CB1012000E0002030BDAE
:101FB000CA430282704741EA0203A0F848307047E2
:101FC0001AB183890B43838102E083898B43838128
:101FD000704721B1828842F00802828004E0828842
:101FE0004FF6F7731A408280704701894FF6F872F6
:101FF0001140018170470A46002101894FF68F7315
:10200000194011430181704730B504460D462946F9
:102010002046FFF7F0FF208940F00700208130BD07
:102020002DE9F04104460D4616461F46602D06D1A7
:102030003B46012231462046FFF775FE05E03B4650
:10204000012231462046FFF7A4FE29462046FFF72D
:10205000D2FF208940F007002081BDE8F08130B533
:102060000C4600210189C9B24FF6FF7505EA032528
:10207000154325432943018130BD2DE9F041054633
:102080000E4617469846002443463A4631462846AF
:10209000FFF7E5FF2C894FF6F870044044F0070481
:1020A0004FF68F70044044F070042C81BDE8F0813D
:1020B000F0B504460D4616461F463B4632462946B5
:1020C0002046FFF7CCFF208940F480402081F0BDFE
:1020D00082884FF68F731A40828082880A438280FA
:1020E000704702894FF6F8731A40028102890A4349
:1020F0000281704702894FF67F731A40028102897C
:102100000A4302817047F0B50C4615461E46002171
:10211000002200230189028B038C4FF6F8773940A7
:1021200021434FF6FC473A4040F201173A434FF63D
:10213000DD773B404FF6FF7707EA06172F433B4317
:10214000018102830384F0BD21B1828842F08002C4
:10215000828004E082884FF67F731A408280704745
:10216000A0F8501070470000FE4A1070704730B160
:10217000FC49096841F48071FA4A116005E0F949A7
:10218000096821F48071F74A1160704730B1F54950
:10219000096841F40071F34A116005E0F1490968EA
:1021A00021F40071EF4A1160704730B1ED490968C0
:1021B00041F48061EB4A116005E0EA49096821F4C5
:1021C0008061E84A11607047E648006840F40060AA
:1021D000E44908607047E348006840F48050E149F2
:1021E00008607047DF481030006800F0004028B1F8
:1021F000DD48DC49091D0860DC4808607047D948A3
:102200001030006840F00040D64910310860704737
:102210000820D4490C31096801F48031B1F5803FC0
:1022200001D1012018E0CF490C31096801F01001FB
:1022300009B1052010E0CB490C31096801F0EF012C
:1022400009B1062008E0C7490C31096801F0020114
:1022500009B1072000E00820704708B50820009069
:10226000FFF7D6FF009002E0FFF7D2FF00909DF845
:1022700000000128F8D09DF8000008BD70B50446A4
:102280000A460026082502B909E0012A01D11602F2
:1022900005E0022A01D1160201E04FF44076FFF773
:1022A000DCFF0546082D2DD1AE481030006820F423
:1022B0004070AC491031086008460068304308603F
:1022C0000846006820F0F80008600846006844F0FE
:1022D00002010843A349103108600846006840F431
:1022E00080300860FFF7B9FF05469E48103000684F
:1022F00020F002009B49103108600846006820F079
:10230000F8000860284670BD30B502460025082454
:10231000FFF7A3FF044602B909E0012A01D1150223
:1023200005E0022A01D1150201E04FF44075082CA6
:1023300020D18C481030006820F440708949103159
:10234000086008460068284308600846006840F0B6
:10235000040008600846006840F480300860FFF719
:102360007CFF04467F481030006820F004007D495F
:1023700010310860204630BD70B5064614461D4633
:102380000822FFF76AFF0246082A1ED1754810305E
:10239000006820F4407073491031086008460068F6
:1023A00040F4407008600846006840F00100086092
:1023B00034607560FFF751FF02466A4810300068CC
:1023C00020F00100674910310860104670BD30B53B
:1023D00002460C460825FFF740FF0546082D1DD193
:1023E00060481030006820F440705E491031086089
:1023F0000846006840F4007008600846006840F035
:10240000010008601460FFF728FF054655481030AA
:10241000006820F00100534910310860284630BDA3
:1024200030B502460C460825FFF717FF0546082D74
:102430001DD14C481030006820F4407049491031DB
:1024400008600846006840F480700860084600682C
:1024500040F0010008601480FFF7FFFE0546414888
:102460001030006820F001003E4910310860284615
:1024700030BD30B502460C460825FFF7EEFE054696
:10248000082D1BD137481030006820F440703549C2
:10249000103108600846006808600846006840F08F
:1024A000010008601470FFF7D8FE05462D48103073
:1024B000006820F001002B4910310860284630BD2B
:1024C00028481430006800F0010028B12848254948
:1024D00008310860274808607047224814300068B7
:1024E00040F001001F4914310860704730B50246C2
:1024F0000C460825FFF7B1FE0546082D10D13CB16A
:10250000184816300088904316491631088007E0B5
:1025100014481630008891B20843124916310880D9
:1025200030BD10B502460824FFF797FE0446082C7C
:1025300002D10C481530027010BDF0B504460D46AE
:10254000FF260827FFF789FE0746082F16D1054802
:102550001430007800F00F0645EA060010432043CF
:10256000004909E0003C024023016745AB89EFCDFB
:102570003B2A19087F6E5D4C14310870F0BD284964
:10258000097821F00C01264A11701146097801439F
:102590001170704700B508222148007840F0020011
:1025A0001F490870FFF759FE0246104600BD1C483F
:1025B0000068C0F3471070471948801C00887047B6
:1025C00000201749491C0978AA2901D0012000E000
:1025D000002070471248007800F00C00704739B1B5
:1025E0000F4A121F126802430D4B1B1F1A6006E0B0
:1025F0000B4A121F12688243094B1B1F1A60704757
:1026000001460020064A083A12680A400AB1012031
:1026100000E0002070470249083908607047000058
:10262000143C024010B504468C48844208D1012174
:10263000084600F000FB0021012000F0FCFA5EE0FB
:102640008748844208D10121022000F0F4FA0021D9
:10265000022000F0F0FA52E08248844208D10121C1
:10266000042000F0E8FA0021042000F0E4FA46E03B
:102670007D48844208D10121082000F0DCFA0021C5
:10268000082000F0D8FA3AE07848844208D10121C5
:10269000102000F0D0FA0021102000F0CCFA2EE03B
:1026A0007348844208D10121202000F0C4FA00219F
:1026B000202000F0C0FA22E06E48844208D10121B7
:1026C000402000F0B8FA0021402000F0B4FA16E0F3
:1026D0006948844208D10121802000F0ACFA002131
:1026E000802000F0A8FA0AE06448844207D1012162
:1026F000801500F0A0FA0021A01500F09CFA10BD92
:10270000F0B50A4600210023002400BF3DE001256A
:1027100005FA01F3156805EA03049C4234D1056803
:102720004F000326BE40B543056015794E00B54005
:102730000668354305601579012D02D01579022D03
:1027400016D185684F000326BE40B5438560557994
:102750004E00B540866835438560456801268E4049
:10276000B5434560456896798E40B6B235434560BD
:10277000C5684F000326BE40B543C560D5794E00FD
:10278000B540C6683543C560491C1029BFD3F0BDAC
:102790004FF6FF7101600021017141718171C171BA
:1027A000704708B54FF480320092009A0A430092B5
:1027B000009AC261C161009AC261C2690092C26995
:1027C000009208BD0246002013690B400BB10120A6
:1027D00000E0002070470146086980B27047024659
:1027E000002053690B400BB1012000E0002070472E
:1027F0000146486980B27047018370474183704742
:102800000AB1018300E0418370474161704742692A
:102810004A4042617047F0B5002300244D07ED0E99
:1028200002FA05F3CE1000F1200555F826504E07A8
:10283000F70E0F26BE40B543CF1000F1200646F834
:102840002750CE1000F1200555F8265045EA030424
:10285000CE1000F1200545F82640F0BD00000240F2
:102860000004024000080240000C02400010024038
:102870000014024000180240001C024000200240E8
:10288000FA48006840F00100F84908600020F74964
:1028900008310860F5480068F5490840F3490860C8
:1028A000F448091D0860081F006820F48020091FF3
:1028B00008600020ED490C31086070470021EB4AA8
:1028C000921C117011460870704710B50146002225
:1028D000002300204A11012A02D1E44C236808E0B9
:1028E000022A03D1E14C7034236802E0DF4C7434D7
:1028F000236801F01F02012494401C400CB1012008
:1029000000E0002010BD38B5002000900024002514
:1029100000BF3120FFF7D9FF05460098401C00900A
:102920000098B0F5A06F01D0002DF2D03120FFF754
:10293000CCFF08B1012400E00024204638BD014648
:102940000020CA4A106820F0F80040EAC100106078
:102950007047C949086070470021C44A703211703D
:102960001170012802D004280AD104E00121BF4AD5
:102970007032117005E00521BC4A7032117000E020
:1029800000BF00BF7047BD490860704770B5049C28
:1029900041EA82150126C6EB530645EA0645054382
:1029A00045EA0465B14E361D356070BDB249086612
:1029B0007047820142EA0172AC4B84331A6070475F
:1029C000AD4988667047AC49C8647047024600202C
:1029D000A64B0833186820F0EC6042EA0103184364
:1029E000A24B083318607047024600209F4B083303
:1029F000186820F0784042EA010318439B4B0833E3
:102A00001860704701460020984A0832106820F08C
:102A1000030008431060704794480830006800F0D5
:102A20000C00704701460020904A0832106820F0E0
:102A3000F000084310607047014600208B4A0832BE
:102A4000106820F4E05008431060704701460020F1
:102A5000864A0832106820F4604040EAC1001060E5
:102A60007047F0B500210022002402250026022331
:102A70007E4F08373F6807F00C0121B1042905D0CB
:102A8000082937D105E07E4F076036E07D4F0760AB
:102A900033E0764F3F1D3F68C7F38056734F3F1DAD
:102AA0003F6807F03F036EB1764FB7FBF3F7DFF8EF
:102AB000BCC10CF1040CDCF800C0CCF3881C07FB93
:102AC0000CF40CE06E4FB7FBF3F7DFF8A0C10CF18C
:102AD000040CDCF800C0CCF3881C07FB0CF4634F3B
:102AE0003F1D3F68C7F301477F1C7D00B4FBF5F72E
:102AF000076002E0624F076000BF00BF5B4F08370E
:102B00003F6807F0F00109095F4F7A5C0768D7401A
:102B10004760564F08373F6807F4E051890A5A4F1B
:102B20007A5C4768D7408760504F08373F6807F4A2
:102B30006041490B544F7A5C4768D740C760F0BD8D
:102B4000002100F44072B2F5407F0AD1474A0832B2
:102B5000116821F4F8114D4A02401143434A0832EA
:102B60001160424A70321268C0F30B031A433F4BA4
:102B700070331A60704741494439086070473F49D3
:102B800040390860704742490860704739B1374A98
:102B9000303212680243354B30331A6006E0334A54
:102BA000303212688243314B30331A60704739B18A
:102BB0002E4A3432126802432C4B34331A6006E03A
:102BC0002A4A343212688243284B34331A607047E1
:102BD00039B1264A383212680243244B38331A601E
:102BE00006E0224A383212688243204B38331A609A
:102BF000704739B11D4A4032126802431B4B4033C3
:102C00001A6006E0194A403212688243174B40337B
:102C10001A60704739B1154A443212680243134BA7
:102C200044331A6006E0114A4432126882430F4B63
:102C300044331A60704739B10C4A103212680243AB
:102C40000A4B10331A6006E0084A103212688243B9
:102C5000064B10331A607047E1B1044A143212680F
:102C60000243024B14331A6019E00000003802409E
:102C7000FFFFF6FE1030002400004742800E47425E
:102C80000024F40000127A0005000020FFFCFF0F72
:102C90005C0147425B4A126882435A4B1A60704794
:102CA00039B1584A121D12680243564B1B1D1A6057
:102CB00006E0544A121D12688243524B1B1D1A60D3
:102CC000704739B14F4A0C32126802434D4B0C33F6
:102CD0001A6006E04B4A0C3212688243494B0C33AF
:102CE0001A60704739B1474A103212680243454BA7
:102CF00010331A6006E0434A103212688243414B97
:102D000010331A60704739B13E4A3C3212680243B0
:102D10003C4B3C331A6006E03A4A3C32126882432C
:102D2000384B3C331A60704739B1364A403212682A
:102D30000243344B40331A6006E0324A4032126894
:102D40008243304B40331A60704739B12D4A4432C8
:102D5000126802432B4B44331A6006E0294A44327E
:102D600012688243274B44331A60704739B1254AB1
:102D70004C3212680243234B4C331A6006E0214A5E
:102D80004C32126882431F4B4C331A60704739B182
:102D90001C4A5032126802431A4B50331A6006E044
:102DA000184A503212688243164B50331A607047EB
:102DB00039B1144AD21F12780243124BDB1F1A702A
:102DC00006E0104AD21F127882430E4BDB1F1A70A6
:102DD00070470C486030006840F0807009496031ED
:102DE0000860704701460020064A083A12680A4007
:102DF0000AB1012000E0002070470249891F0870D5
:102E000070470000143802400CB50020019000907B
:102E10007648006840F480307449086000BF734809
:102E2000006800F4003000900198401C0190009868
:102E300018B90198B0F5A06FF1D16C48006800F4A2
:102E4000003010B10120009001E0002000900098B7
:102E5000012846D165484030006840F08050634901
:102E6000403108606248006840F480406049086072
:102E70005E48083000685D4908310860084600680F
:102E800040F4004008600846006840F4A050086024
:102E90005848091F0860081F006840F08070091F2B
:102EA000086000BF5148006800F000700028F9D0A9
:102EB00040F20560504908604C480830006820F036
:102EC00003004A49083108600846006840F00200E3
:102ED000086000BF45480830006800F00C00082872
:102EE000F8D10CBD10B54548006840F47000434966
:102EF00008603E48006840F001003C49086000203E
:102F00003A4908310860394800683D490840374966
:102F100008603C48091D0860081F006820F48020F4
:102F2000091F0860002031490C310860FFF76CFF71
:102F30004FF0006031498039086010BD70B5002045
:102F40000022022300240221284D08352D6805F0B7
:102F50000C0020B1042806D0082834D107E02A4DFF
:102F60002A4E356033E02A4D284E35602FE01F4D44
:102F70002D1D2D68C5F380541C4D2D1D2D6805F0A9
:102F80003F0154B1224DB5FBF1F5184E361D3668A0
:102F9000C6F3881605FB06F209E01B4DB5FBF1F5FB
:102FA000124E361D3668C6F3881605FB06F20F4D25
:102FB0002D1D2D68C5F301456D1C6B00B2FBF3F5AB
:102FC000124E356003E0104D104E356000BF00BF5B
:102FD000064D08352D68C5F303150E4E705D0B4D7B
:102FE0002D68C540094E356070BD000000380240B4
:102FF0000070004008544007003C024088ED00E0AB
:10300000FFFFF6FE103000240024F400180000201A
:1030100000127A001C00002006488047064800473E
:10302000FEE7FEE7FEE7FEE7FEE7FEE7FEE7FEE778
:10303000FEE7FEE7E52E000889010008FDF7F6FA35
:103040000AE00648007820B100200449087003F027
:10305000F9F83220FDF7F8F8F3E70000DE00002071
:1030600010B50120FE490870FE4B0E223B2168205E
:10307000FDF7B3FC10BDF8B506460F4614461D46D5
:103080006B46012239463046FDF7A7FC2DB10120E1
:10309000A0409DF80010084305E00120A0409DF8E5
:1030A000001021EA0000C0B200909DF800203946CF
:1030B0003046FDF724FC08B9012000E00020EA4971
:1030C0000870F8BD2DE9F8430746884614461D46AA
:1030D000089E6B46012241463846FDF77EFC601C87
:1030E000FF2101FA00F0C4F108012944491EFF2222
:1030F0000A41104300F0FF09C5F1080006FA00F08C
:10310000C6B2C4F1070006419DF8000000EA0900BC
:1031100000909DF80000304300909DF8002041464B
:103120003846FDF7ECFBBDE8F88370B504464FF474
:103130007A7090FBF4F0401EC5B22A46192168202F
:10314000FDF7DDFB70BD38B50446032302226B2179
:1031500068200094FFF7B6FF38BD38B50446022357
:1031600004221B2168200094FFF7ACFF00200323FA
:1031700007221B2100906820FFF7A4FF38BD38B557
:103180000446022304221C2168200094FFF79AFFC2
:103190000020032307221C2100906820FFF792FFE4
:1031A00038BD10B50446234606226B216820FFF780
:1031B00062FF10BD10B50446234605226A2168202F
:1031C000FFF759FF10BD10B50446234601223721F1
:1031D0006820FFF750FF10BD38B5044603230222D4
:1031E0001A2168200094FFF76DFF38BD1CB501213E
:1031F0000820FFF7CBFC8020009000208DF8040011
:1032000003208DF8050000208DF8060001208DF8C0
:10321000070069469548FFF773FA80219348FFF746
:10322000EBFA1CBD70B504460125FFF7DFFF2A2C21
:1032300015D006DC052C0CD00A2C0CD0142C16D181
:103240000BE0622C0DD0BC2C0DD0B4F5807F0ED1DC
:103250000BE006250DE005250BE0042509E003251C
:1032600007E0022505E0012503E0002501E0032534
:1032700000BF00BFFDF72DFA0020FFF792FF0A20E4
:10328000FCF7E2FF0320FFF75EFF0A20FCF7DCFFFC
:103290004FF47A70FFF749FF0A20FCF7D5FF0320AF
:1032A000FFF75BFF0A20FCF7CFFF0220FFF767FF65
:1032B0000A20FCF7C9FFE8B2FFF78EFF0A20FCF7EF
:1032C000C3FF0020FFF776FF0A20FCF7BDFF0120B7
:1032D000FFF779FF0A20FCF7B7FF70BD10B564480F
:1032E000007801287ED16248808810FB00F1604898
:1032F000C288C08812FB00115D480289008912FB58
:10330000001000EE900AF8EEE00AB0EE600A02F05B
:1033100007FCDFED580AB4EEE00AF1EE10FA03D232
:103320000120554908631FE05148808810FB00F1D7
:103330004F48C288C08812FB00114D48028900899D
:1033400012FB001000EE900AF8EEE00AB0EE600A00
:1033500002F0E6FBDFED490AB4EEE00AF1EE10FA06
:1033600002DD00204449086345480088401C444968
:103370000880444800683E49B1F9041008444149B6
:103380000860084641683A48B0F9060008443D49DB
:103390004860084681683648B0F90800A0F58050BA
:1033A000084438498860084680693149B1F9741089
:1033B0000844344988613248008832283DDB084699
:1033C0000068322190FBF1F000EE100AB8EEC00A5E
:1033D000274880ED0D0A2B48406890FBF1F000EE85
:1033E000100A00E029E0B8EEC00A214880ED0E0A7C
:1033F0002448806890FBF1F000EE100AB8EEC00A95
:103400001B4880ED0F0A1F48806990FBF1F000EE29
:10341000100AB8EEC00A164880ED190A00201849B3
:1034200008801349087001F1340002F041FE0020C9
:10343000144988618860486008600D484078002819
:103440007ED011480088401C0F4908800D48006953
:103450000749B1F90A1008440A490861084615E00D
:1034600004000020100A00202C000020000C024064
:103470005009002000401C45D00900200080224552
:103480002E000020200A002030000020C168FE48E5
:10349000B0F90C000844FD49C86008464169FA4883
:1034A000B0F90E000844F949486108468069F649B8
:1034B000B1F974100844F5498861F548008832284C
:1034C00044DB084690ED040AB8EEC00ADFEDF10ACD
:1034D00080EE201AEC4880ED101A084690ED030AA1
:1034E000B8EEC00ADFEDEB0A80EE201AE64880ED68
:1034F000111A084690ED050AB8EEC00ADFEDE50A9C
:1035000080EE201AE04880ED121A084680693221C8
:1035100090FBF1F000EE100AB8EEC00ADA4880ED38
:103520001A0A0020DA490880D7484078012803D1D8
:10353000D548403002F0CDFD0020D349487000E06E
:1035400004E0D24988614861C860086110BD80ED1F
:10355000000AC1ED000A82ED001A704710B52DED8A
:10356000028B8AB0B0EE408A1C2103A802F0BDFE97
:10357000FFF7B4FEC8484078C749097840EA0120FF
:1035800000B2C1498880C448C078C349897840EAFC
:10359000012001B2BC48C180BF484079BE490979C9
:1035A00040EA012001B2B8480181BB48407ABA49DB
:1035B000097A40EA012000B2B3494881B648C07A8E
:1035C000B549897A40EA012001B2AF488181B24809
:1035D000407BB149097B40EA012001B2AA48C18180
:1035E000B0F90A0000EE100AB8EEC00A8DED000A2C
:1035F000A548B0F90C0000EE100AB8EEC00A8DED37
:10360000010AA148B0F90E0000EE100AB8EEC00A97
:103610008DED020AA048C0799F49897940EA0120CE
:1036200000B29949A1F874000846B0F9740000EEA0
:10363000100AB8EEC00A0846D0ED1E0A70EE600A05
:1036400090ED1E0A9FED951A28EE011A01EE200A50
:1036500080ED1E0A90ED1E0ADFED910A80EE201A21
:103660009FED900A31EE000A80ED1F0A8E48007827
:10367000401CC0B28C4908700A2805DD0020087083
:1036800001208A4908700AE0874800780A2801D199
:10369000002002E084480078401C84490870844877
:1036A000006B68BB7848B0F9040000EE100AB8EE71
:1036B000C00A7548D0ED0D0A30EE600A7D4880EDF5
:1036C000000A7148B0F9060000EE100AB8EEC00A10
:1036D0006D48D0ED0E0A30EE600A764880ED010AA2
:1036E0006948B0F9080000EE100AB8EEC00A664852
:1036F000D0ED0F0A30EE600A6E4880ED020A3CE021
:103700006148B0F9040000EE100AB8EEC00A5E4845
:10371000D0ED0D0A30EE600AF0EE000A20EE200A2D
:10372000644880ED000A5848B0F9060000EE100A1F
:10373000B8EEC00A5448D0ED0E0A30EE600AF0EE42
:10374000000A20EE200A5B4880ED010A4E48B0F9DD
:10375000080000EE100AB8EEC00A4B48D0ED0F0A80
:1037600030EE600ADFED540A30EE600AF0EE000A37
:1037700020EE200A4F4880ED020A9DED000A4248E3
:10378000D0ED100A30EE600A4A4880ED040A9DED43
:10379000010A3D48D0ED110A30EE600A454880ED3F
:1037A000030A9DED020A3848D0ED120A30EE600A95
:1037B000404880ED050A90ED000ABDEEC00A10EE0B
:1037C000100A01B23D48384A127820F812103948E0
:1037D00090ED010ABDEEC00A10EE100A01B23748A2
:1037E0001630314A127820F81210324890ED020A51
:1037F000BDEEC00A10EE100A01B230482C302A4A41
:10380000127820F812102B4890ED040ABDEEC00A81
:1038100010EE100A01B229485830234A127820F8D5
:103820001210244890ED030ABDEEC00A10EE100AF3
:1038300001B2224842301C4A127820F812101D486A
:1038400090ED050ABDEEC00A10EE100A01B21B4849
:103850006E30154A127820F81210002446E01749FD
:1038600031F914100398084403901448163030F9C5
:10387000140004990844049010482C3030F91400C6
:103880000599084405901BE050090020200A0020FB
:103890003000002000004842100A0020C3F5C84054
:1038A0000000AA4300001242320000203300002032
:1038B000D0090020D80A0020000000453C0A002062
:1038C0004B4830F9140007990844079048481638C7
:1038D00030F914000699084406904548163030F92E
:1038E0001400089908440890601CC4B20A2CB6DB86
:1038F0009DED030AB8EEC00AF2EE040A80EE201A2B
:103900003C4880ED001A9DED040AB8EEC00AF2EEC4
:10391000040A80EE201A80ED011A9DED050AB8EE2A
:10392000C00AF2EE040A80EE201A80ED021A9DED24
:10393000070AB8EEC00AF2EE040A80EE201A80ED03
:10394000041A9DED060AB8EEC00AF2EE040A80EEF3
:10395000201A80ED031A9DED080AB8EEC00AF2EEB7
:10396000040A80EE201A80ED051AD0ED021AB0EE9E
:10397000611AD0ED011AF0EE610AD0ED001AB0EE36
:10398000610A1D4A111F081FFFF7E1FD1948D0ED1C
:10399000051AB0EE611AD0ED031AF0EE610AD0ED0F
:1039A000041AB0EE610A144A0C32111F081FFFF707
:1039B000CEFD1148183890ED070ADFED100A20EE11
:1039C000200A80ED0A0A90ED080ADFED0C0A20EECD
:1039D000200A80ED0B0A90ED090ADFED080A20EEBF
:1039E000200A80ED0C0A0AB0BDEC028B10BD00006D
:1039F000940A0020F40A00206809002098FA793D12
:103A000010B501220A210C20FCF779FF10BD0EB57C
:103A1000F0EE402AF0EE601AB0EE412ACDED002A19
:103A2000CDED011A8DED022A9DED000ADDED010AB2
:103A30009DED021A0EBD10B5F748007800287CD025
:103A4000F648B0F90000002803DDF448B0F90000A2
:103A500003E0F248B0F900004042B0F5C87F6DDAEB
:103A6000EE48B0F90200002803DDEC48B0F902008E
:103A700003E0EA48B0F902004042B0F5C87FEEDA50
:103A8000E648B0F90400002803DDE448B0F904007A
:103A900003E0E248B0F904004042B0F5C87FDEDA46
:103AA000DE48B0F9000000EE100AB8EEC00ADC48AB
:103AB000D0ED000AB4EEE00AF1EE10FA07DDD748C7
:103AC000B0F9000000EE100AB8EEC00A02E0D448D7
:103AD00090ED000AD24880ED000AD048B0F902000B
:103AE00000EE100AB8EEC00ACD48D0ED010AB4EEDF
:103AF000E00AF1EE10FA07DDC848B0F9020000EE66
:103B0000100AB8EEC00A02E0C54890ED010AC448A8
:103B100080ED010AC148B0F9040000EE100AB8EEC9
:103B2000C00ABF48D0ED020AB4EEE00AF1EE10FA86
:103B30000ADDBA48B0F9040001E0F2E0E4E000EE8A
:103B4000100AB8EEC00A02E0B54890ED020AB44887
:103B500080ED020AB148B0F9000000EE100AB8EE9C
:103B6000C00AB048D0ED000AB4EEE00AF1EE10FA57
:103B700007D2AA48B0F9000000EE100AB8EEC00A59
:103B800002E0A84890ED000AA64880ED000AA3488C
:103B9000B0F9020000EE100AB8EEC00AA148D0ED5C
:103BA000010AB4EEE00AF1EE10FA07D29B48B0F930
:103BB000020000EE100AB8EEC00A02E0994890ED4B
:103BC000010A984880ED010A9448B0F9040000EE1B
:103BD000100AB8EEC00A9348D0ED020AB4EEE00A2B
:103BE000F1EE10FA07D28D48B0F9040000EE100A89
:103BF000B8EEC00A02E08B4890ED020A894880EDD9
:103C0000020A89480088B0F5FA6F7DD1844890EDAA
:103C1000000A8448D0ED000A30EE200AF6EE000AD1
:103C200020EE200ABDEEC00A10EE100A00B200EE2F
:103C3000100AB8EEC00A794880ED020A784890ED83
:103C4000010A7848D0ED010A30EE200AF6EE000AAB
:103C500020EE200ABDEEC00A10EE100A00B200EEFF
:103C6000100AB8EEC00A6D4880ED030A6C4890ED6A
:103C7000020A6C48D0ED020A30EE200AF6EE000A85
:103C800020EE200ABDEEC00A10EE100A00B200EECF
:103C9000100AB8EEC00A614880ED040A604890ED51
:103CA000000A6048D0ED000A30EE600A5F4880EDFF
:103CB000000A5B4890ED010A5A48D0ED010A30EE47
:103CC000600A5A4880ED010A554890ED020A5548AD
:103CD000D0ED020A30EE600A544880ED020A90ED01
:103CE000000AD0ED010A80EE201A4C4880ED061A39
:103CF0004E4890ED000AD0ED020A80EE201A4748A7
:103D000080ED071A083000E006E002F0F4F9002028
:103D1000454908804049087043480088401C424992
:103D2000088010BD1FB50020414908706A46032174
:103D30000C20FCF703FE0DF1010204210C20FCF71E
:103D4000FDFD9DF800009DF8011040EA012000B241
:103D5000ADF80A000DF1020205210C20FCF7EEFD82
:103D60000DF1030206210C20FCF7E8FD9DF802008E
:103D70009DF8031040EA012000B2ADF8080001AA46
:103D800007210C20FCF7DAFD0DF1050208210C20BB
:103D9000FCF7D4FD9DF804009DF8051040EA0120D1
:103DA000404200B2ADF80C00BDF808001B49088085
:103DB000BDF80A004880BDF80C0088800846B0F9BC
:103DC000000000EE100AB8EEC00A0846D0ED020A64
:103DD00030EE600A80ED080AB0F9020000EE100A29
:103DE000B8EEC00A0846D0ED030A30EE600A80ED56
:103DF000090AB0F9040000EE100AB8EEC00A08463D
:103E0000D0ED040A30EE600A80ED0A0AFFF713FED7
:103E1000FFF7F6FD1FBD00007500002048000020E0
:103E2000780000208400002090000020100B00206B
:103E300004000020054890ED080AD0ED090A90ED35
:103E40000A1A704710B5FFF76DFF10BD480000203B
:103E500070B504460D461646D4ED020A60EEA00A7F
:103E600094ED011AD4ED011A41EE210AB0EE600A78
:103E700001F056FEFE4880ED000AD4ED020A60EE25
:103E8000A00A94ED001AD4ED001A41EE210AB0EE1A
:103E9000600A01F045FEF74880ED000A94ED020A41
:103EA000B5EEC00AF1EE10FA02D24FF0FF3000E09A
:103EB0000120F149087095ED000AED48D0ED000AA7
:103EC00060EE200A94ED001A084690F9000000EE1A
:103ED000100AB8EEC00A21EE000A95ED021A40EE73
:103EE000410AC6ED000A084690F9000000EE100AEB
:103EF000B8EEC00ADF48D0ED000A20EE200AD5ED6A
:103F0000010A20EE200AD4ED010A95ED021A00EE16
:103F1000C10A86ED010A94ED000AD5ED000A20EEF3
:103F2000200AD4ED010A95ED011A00EE810AD4EDC4
:103F3000020A95ED021A00EE810A86ED020A70BDB2
:103F400070B52DED0C8BB0EE408AB0EE60BAF0EE9D
:103F500041BAB0EE61CAF0EE429AB0EE629AF0EE6B
:103F6000438A04460D4616469FEDC40A28EE000A11
:103F7000F3EE040A20EE200AF0EE40AAC048D0ED8D
:103F8000080A60EEA00A90ED091AD0ED091A41EE78
:103F9000210A90ED0A1AD0ED0A1A41EE210AB0EE7C
:103FA000600A01F0BDFDB74880ED000A90ED000AFF
:103FB000B5EEC00AF1EE10FA38D0B148D0ED080ADB
:103FC000B04890ED001A80EE810AAF48D0ED000AAB
:103FD00070EE600A90ED000A0AEEA00A80ED000A79
:103FE000A748D0ED090AA74890ED001A80EE810A93
:103FF000A548D0ED010A70EE600A90ED010A0AEEC4
:10400000A00A80ED010A9E48D0ED0A0A9D4890ED75
:10401000001A80EE810A9C48D0ED020A70EE600A18
:1040200090ED020A0AEEA00A80ED020A974A96492C
:104030009748FFF70DFF9548D0ED000A60EEA00A03
:1040400090ED011AD0ED011A41EE210AB0EE600A9E
:1040500001F066FD8F4880ED000A8C4890ED000A63
:10406000B5EEC00AF1EE10FA36D090ED010AB5EEC9
:10407000C00AF1EE10FA2FD090ED020AB5EEC00A98
:10408000F1EE10FA28D0834890ED000AB5EEC00A90
:10409000F1EE10FA20D07D4890ED000A7D48D0ED79
:1040A000000A80EE201AF0EE41CA784890ED010A2D
:1040B0007848D0ED000A80EE201AB0EE41DAF0EE3A
:1040C0006C0AB0EE4D0A01F070FCDFED730A20EED1
:1040D000200A724880ED000A714890ED010AD0ED87
:1040E000030A20EE200AD0ED000A90ED021A00EE3D
:1040F000C10AF0EE000A20EE200A654880ED000AB1
:10410000674890ED000AD0ED010A20EE200AD0EDBC
:10411000020A90ED031A00EE810AF0EE000A20EE8A
:10412000200A5B4880ED010A5D4890ED010A20EE0F
:10413000000AD0ED020A90ED021A00EE810AF7EEB5
:10414000000AB0EE001A41EE400A5148C0ED020AE2
:104150005448007800285ED05248007802280CD1DC
:104160009FED510A514880ED000A9FED4F0A80ED06
:10417000010A9FED4D0A80ED020A4C4890ED000ABD
:10418000434890ED001ADFED4A1AF0EE690A41EE5D
:10419000C10A9FED481A60EE810A9FED471A00EEB2
:1041A000810A424880ED000A90ED010A384890EDFE
:1041B000011ADFED3F1AF0EE490A41EEC10A9FED08
:1041C0003D1A60EE810A9FED3C1A00EE810A3748E5
:1041D00080ED010A90ED020A2D4890ED021ADFED04
:1041E000341AF0EE680A41EEC10A9FED321A60EE11
:1041F000810A9FED311A00EE810A2C4880ED020AF7
:1042000028480078401C2749087008460078522842
:1042100001DB00200870254890ED000A1C4890ED55
:10422000001ADFED231AF0EE690A41EEC10A9FED94
:10423000211A11EE200A214880ED000A1B4890ED5A
:10424000010A134890ED011ADFED191AF0EE490A40
:1042500041EEC10A9FED171A11EE200A174880EDB2
:10426000010A124890ED020A094890ED021A27E06F
:10427000C8000020CC000020C5000020C3F5C840C5
:1042800048000020C0000020940B0020640B002098
:104290001C0B0020BC00002033336542D4000020FA
:1042A000A0000020C400002000000000880B0020B7
:1042B000000080455C201940CDCC4C3C7C0B00209C
:1042C0005FED051AF0EE680A41EEC10A1FED071A0C
:1042D00011EE200AFE4880ED020A90ED000AFD482A
:1042E000D0ED000A20EE200AF948D0ED010AF94885
:1042F00090ED011A00EE810AF548D0ED020AF5486A
:1043000090ED021A00EE810AF34880ED020A69EE90
:10431000A90A49EE090A48EEA80AB0EE600A01F0BF
:10432000FFFBEE4880ED000AF5EEC09AF1EE10FAC0
:1043300002DDB0EE690A01E0B1EE690ADFEDE80ADC
:10434000B4EEE00AF1EE10FA7DD2B5EEC09AF1EECD
:1043500010FA02DDB0EE490A01E0B1EE490ADFEDE4
:10436000E00AB4EEE00AF1EE10FA78D2F5EEC08A77
:10437000F1EE10FA02DDB0EE680A01E0B1EE680A73
:10438000DFEDD70AB4EEE00AF1EE10FA67D2D348B7
:1043900090ED000AC9EE800AF0EE609A90ED000AF6
:1043A000C9EE000AB0EE609A90ED000AC8EE800AED
:1043B000F0EE608A90ED000ADFEDCA0AB4EEE00A82
:1043C000F1EE10FA54DD90ED000ADFEDC50AB4EE0F
:1043D000E00AF1EE10FA4BD2BE4890ED020A20EE50
:1043E000090AD0ED010A08EEE00ABF4880ED030A91
:1043F000B84890ED000A20EE280AD0ED020A09EE36
:10440000E00AB94880ED040A1FED640A28EE000AAC
:10441000F7EE000A20EE20AA90ED030AD0ED060A7E
:1044200070EE600A90ED060A0AEE200A80ED060A98
:1044300090ED040AD0ED070A70EE600A90ED070ACD
:104440000AEE200A00E00AE080ED070A90ED060A75
:1044500080ED000A90ED070A80ED010A08E01FEDEB
:104460006E0AA14880ED000A1FED710A80ED010A75
:104470009D4890ED090AD0ED000A1FED751A60EE17
:10448000810AB0EE001A60EE810A00EE880A80ED23
:10449000090A90ED0A0AD0ED010A1FED7D1A60EEBF
:1044A000810AB0EE001A60EE810A00EE880A80ED03
:1044B0000A0A90ED0B0AD0ED020A1FED851A60EE94
:1044C000810AB0EE001A60EE810A00EE880A80EDE3
:1044D0000B0A90ED090ADFED850AB4EEE00AF1EE71
:1044E00010FA02D29FED810A0FE07F4890ED090A91
:1044F000DFED7F0AB4EEE00AF1EE10FA02DD9FED87
:104500007C0A02E0784890ED090A774880ED090AB4
:1045100090ED0A0ADFED750AB4EEE00AF1EE10FA4A
:1045200002D29FED720A0FE06F4890ED0A0ADFEDAC
:10453000700AB4EEE00AF1EE10FA02DD9FED6C0AAB
:1045400002E0694890ED0A0A674880ED0A0A90ED9A
:104550000B0ADFED660AB4EEE00AF1EE10FA02D2C1
:104560009FED620A0FE0604890ED0B0ADFED600AF4
:10457000B4EEE00AF1EE10FA02DD9FED5D0A02E012
:10458000594890ED0B0A584880ED0B0A514890EDC0
:10459000020AB5EEC00AF1EE10FA13DD5548D0ED6F
:1045A000000A554890ED001A70EEC10AB0EE600A9C
:1045B00001F0B4FCDFED510A20EE200A504880EDF6
:1045C000000A04E01FEDC80A4D4880ED000A464885
:1045D00090ED000AD0ED090A30EE200ADFED490A1D
:1045E00020EE200A3B4890ED001A4548D0ED001A15
:1045F000F0EE4B0A41EE610A9FED431A00EE810A8C
:10460000394880ED0C0A90ED010AD0ED0A0A30EE2F
:10461000200ADFED3C0A20EE200A2E4890ED011A18
:104620003748D0ED001AF0EE6B0A41EE610A9FEDBB
:10463000361A00EE810A2C4880ED0D0A2548D0ED8F
:10464000020A2F4890ED001AB0EE4C0A00EEC10AA3
:10465000DFED2D0A20EE200A234880ED0E0A2B48BC
:1046600090ED010AB1EE400A1F48D0ED0C0A20EE91
:10467000200A2648D0ED020A1B4890ED0D1A00EEE4
:10468000C10A2248D0ED030A174890ED0E1A00EE39
:10469000C10A1E48D0ED000A40EE080AC0ED000A2B
:1046A00090ED000A1048D0ED0C0A20EE200A1748C1
:1046B000D0ED020A0C4890ED0E1A00EE810A134864
:1046C000D0ED030A084890ED0D1A00EEC10A1FE074
:1046D0007C0B00201C0B0020700B0020B000002081
:1046E0000080894500806D45280B002034FA0EBDFE
:1046F00034FA0E3DD40000209C00002090C2753D8D
:10470000D00000209A99993E34FA8E3CA0000020F7
:104710006B48D0ED010A40EE080AC0ED010A90EDA9
:10472000000A6848D0ED0D0A20EE200A6448D0ED5A
:10473000010A644890ED0E1A00EEC10A6048D0EDFF
:10474000030A604890ED0C1A00EE810A5C48D0ED37
:10475000020A40EE080AC0ED020A90ED000A59482C
:10476000D0ED0E0A20EE200A5548D0ED010A55483A
:1047700090ED0D1A00EE810A5148D0ED020A514821
:1047800090ED0C1A00EEC10A4D48D0ED030A40EE40
:10479000080AC0ED030AD0ED000A60EEA00A90ED11
:1047A000011AD0ED011A41EE210A90ED021AD0ED66
:1047B000021A41EE210A90ED031AD0ED031A41EEE0
:1047C000210AB0EE600A01F0ABF93F4880ED000A23
:1047D0003B4890ED000A3C48D0ED000A80EE201ADC
:1047E000374880ED001A90ED010A3748D0ED000AF5
:1047F00080EE201A324880ED011A90ED020A32480C
:10480000D0ED000A80EE201A2D4880ED021A90EDBE
:10481000030A2D48D0ED000A80EE201A284880EDCA
:10482000031A90ED011A21EE011AD0ED021A90ED53
:10483000022A01EE821AF7EE001AB0EE002A42EECA
:10484000411AF0EE610A90ED001AD0ED011A21EE46
:10485000211AD0ED021A90ED032A01EE821AF0EE31
:10486000001A21EE211AB0EE410A01F09EF8DFEDA8
:10487000170A20EE200A84ED000A1148D0ED010A43
:1048800090ED031A60EE810A90ED001AD0ED021A45
:1048900041EE610AB0EE001A60EE810AB0EE600AE5
:1048A00001F0BAFFDFED090A20EE200A85ED000ACB
:1048B000074890ED000A86ED000ABDEC0C8B70BD38
:1048C000A0000020280B0020B400002033336542F4
:1048D000D40000202DE9F0432DED048B83B0B0EE21
:1048E000408AF0EE608AB0EE419A06460F46904646
:1048F00000240196A146AA222146641CFE48425487
:104900002146641C425401222146641C4254002268
:104910002146641C42549FEDF90A28EE000ABDEEC0
:10492000C00A10EE100A00B202909DF8092021463C
:10493000641CF14842549DF808202146641C4254EE
:104940009FEDEE0A28EE800ABDEEC00A10EE100AB6
:1049500000B202909DF809202146641CE6484254AA
:104960009DF808202046611CCCB2E3490A549FED13
:10497000E30A29EE000ABDEEC00A10EE100A00B2EA
:1049800002909DF809202046611CCCB2DA490A54F5
:104990009DF808202046611CCCB2D7490A549DF8E6
:1049A00007202046611CCCB2D3490A549DF806204A
:1049B0002046611CCCB2D0490A549DF805202046FF
:1049C000611CCCB2CC490A549DF804202046611CDD
:1049D000CCB2C9490A542046611CCCB2C6490F5416
:1049E0002046611CCCB2C44901F80080201FC87069
:1049F000002506E0C048405D484400F0FF09681CFF
:104A0000C5B2A542F6DB2046611CCCB2BA4901F81A
:104A100000902146B848FBF7B7FD03B0BDEC048B0E
:104A2000BDE8F0832DE9F84F06460F4690469946BB
:104A3000DDF828B00024A246AA222146641CAE4814
:104A400042542146641C425402222146641C4254B2
:104A500000222146641C425400969DF80120214604
:104A6000641C42549DF800202146641C4254009767
:104A70009DF801202146641C42549DF800202046E8
:104A8000611CCCB29C490A54CDF800809DF80120ED
:104A90002046611CCCB298490A549DF8002020465B
:104AA000611CCCB294490A54CDF800909DF80120C5
:104AB0002046611CCCB290490A549DF80020204643
:104AC000611CCCB28C490A54CDF800B09DF801208D
:104AD0002046611CCCB288490A549DF8002020462B
:104AE000611CCCB284490A540B9800909DF80120B7
:104AF0002046611CCCB280490A549DF80020204613
:104B0000611CCCB27C490A540C9800909DF801209D
:104B10002046611CCCB278490A549DF800202046FA
:104B2000611CCCB274490A540D9800909DF8012084
:104B30002046611CCCB270490A549DF800202046E2
:104B4000611CCCB26C490A540E9800909DF801206B
:104B50002046611CCCB268490A549DF800202046CA
:104B6000611CCCB264490A54002000909DF80120D9
:104B70002046611CCCB260490A549DF800202046B2
:104B8000611CCCB25C490A54201FC870002506E0A5
:104B90005948405D504400F0FF0A681CC5B2A54268
:104BA000F6DB2046611CCCB2534901F800A0214637
:104BB0005148FBF7E9FCBDE8F88FF0B52DED0A8B05
:104BC00081B00646B0EE408AF0EE608AB0EE419ABF
:104BD000F0EE619AB0EE42AAF0EE62AAB0EE43BAED
:104BE000F0EE63BAB0EE44CA00240027AA222146A0
:104BF000641C414842542146641C425406F10F0093
:104C0000C2B22146641C3C48425400222146641C26
:104C100042549FED3B0A28EE000ABDEEC00A10EE9A
:104C2000100A00B200909DF801202146641C324811
:104C300042549DF800202146641C42549FED300AE6
:104C400028EE800ABDEEC00A10EE100A00B20090F5
:104C50009DF801202146641C274842549DF80020FD
:104C60002046611CCCB224490A549FED250A29EE46
:104C7000000ABDEEC00A10EE100A00B200909DF8C6
:104C800001202046611CCCB21B490A549DF800202B
:104C90002046611CCCB218490A549FED190A29EE2E
:104CA000800ABDEEC00A10EE100A00B200909DF816
:104CB00001202046611CCCB20F490A549DF8002007
:104CC0002046611CCCB20C490A549FED0D0A2AEE15
:104CD000000ABDEEC00A10EE100A00B200909DF866
:104CE00001202046611CCCB203490A549DF80020E3
:104CF0002046611CCCB205E0A00B00200000C84299
:104D000000007A44FE490A541FED030A2AEE800A85
:104D1000BDEEC00A10EE100A00B200909DF801200E
:104D20002046611CCCB2F6490A549DF8002020466A
:104D3000611CCCB2F2490A541FED0F0A2BEE000A97
:104D4000BDEEC00A10EE100A00B200909DF80120DE
:104D50002046611CCCB2EA490A549DF80020204646
:104D6000611CCCB2E6490A541FED1B0A2BEE800AE7
:104D7000BDEEC00A10EE100A00B200909DF80120AE
:104D80002046611CCCB2DE490A549DF80020204622
:104D9000611CCCB2DA490A541FED270A2CEE000A36
:104DA000BDEEC00A10EE100A00B200909DF801207E
:104DB0002046611CCCB2D2490A549DF800202046FE
:104DC000611CCCB2CE490A54201FC870002505E0F2
:104DD000CB48405D3844C7B2681CC5B2A542F7DB7A
:104DE0002046611CCCB2C6490F542146C448FBF78B
:104DF000CBFB01B0BDEC0A8BF0BD30B585B00446ED
:104E00000A20B4FBF0F100FB114070B900221146FA
:104E10001046BC4B93ED001ABB4BD3ED000ABB4BC5
:104E200093ED000AFFF756FD97E0601C0A21B0FBE6
:104E3000F1F201FB1200E8BBB54890ED0A0ABDEEA5
:104E4000C00A10EE100A02B2B14890ED090ABDEE98
:104E5000C00A10EE100A00B2AD4991ED080ABDEE8D
:104E6000C00A10EE101A09B2AA4B93ED090ABDEE62
:104E7000C00A10EE103A1BB2CDE90131CDE90302B0
:104E8000A44890ED080ABDEEC00A10EE100A00B268
:104E9000A04D009095ED070ABDEEC00A10EE105A25
:104EA0002BB29C4D95ED060ABDEEC00A10EE105ACD
:104EB0002AB200E012E0974D95ED050ABDEEC00A5A
:104EC00010EE105A29B2934D95ED040ABDEEC00ABA
:104ED00010EE105A28B2FFF7A5FD3EE0A01C0A21F3
:104EE000B0FBF1F201FB120080BB8B48007860B38D
:104EF0008A48D0ED024AB0EE644AD0ED014AF0EEA5
:104F0000643AD0ED004AB0EE643A8548D0ED024AEA
:104F1000F0EE642AD0ED014AB0EE642AD0ED004AEA
:104F2000F0EE641A7F48D0ED024AB0EE641AD0ED7C
:104F3000014AF0EE640AD0ED004AB0EE640A0120A6
:104F4000FFF73BFE00207449087006E0FFE7764853
:104F5000007810B100207449087005B030BD70476A
:104F60002DE9F0412DED048B04460D460027002667
:104F700004E0A05D3844C7B2701CC6B2681EB042DF
:104F8000F7DC601910F8010CB84203D0BDEC048BBB
:104F9000BDE8F0812078AA2802D16078AF2800D03F
:104FA000F4E7A078012824D12079012802D15949B9
:104FB00008701EE02079022803D10120554948706D
:104FC00017E02079032804D1012052490870487065
:104FD0000FE02079042805D1012054490870544974
:104FE000087006E02079212802DB2079262800DDE0
:104FF00000BFA078022809D12079012801D14649B3
:1050000008702079A12801D101F081F8A07810283A
:1050100074D12179090209B2627941EA020001F0F2
:1050200088FA41EC190B9FED430B53EC102B01F068
:105030000EFA41EC180B01F0BDFA3A490860A1796B
:10504000090209B2E27941EA020001F072FA41EC88
:10505000190B9FED380B53EC102B01F0F8F941ECD4
:10506000180B01F0A7FA2F494860217A090209B20A
:10507000627A41EA020001F05CFA41EC190B9FED03
:105080002D0B53EC102B01F0E2F941EC180B01F061
:1050900091FA24498860A17A090209B2E27A41EAC8
:1050A000020001F046FA41EC190B9FED220B53EC84
:1050B000102B01F0CCF941EC180B01F07BFA1849E8
:1050C0000860217B090209B2627B41EA020001F01B
:1050D00030FA41EC190B9FED170B53EC102B01F03C
:1050E000B6F941EC180B01F065FA0D494860A17B57
:1050F000090209B2E27B41EA02001FE070E0000011
:10510000A00B00209C0000209800002094000020AC
:105110004800002050090020D8000020040C002086
:10512000200C00203C0C0020DB000020750000203B
:10513000DE000020FCA9F1D24D62503F01F0F9F9E8
:1051400041EC190B1FED050B53EC102B01F07FF90F
:1051500041EC180B01F02EFA5F498860217C0902AE
:1051600009B2627C41EA020001F0E3F941EC190B5B
:105170001FED100B53EC102B01F069F941EC180BEB
:1051800001F018FA55490860A17C090209B2E27CD5
:1051900041EA020001F0CDF941EC190B1FED1B0BA8
:1051A00053EC102B01F053F941EC180B01F002FA0B
:1051B0004A494860217D090209B2627D41EA020044
:1051C00001F0B7F941EC190B1FED260B53EC102B36
:1051D00001F03DF941EC180B01F0ECF93F49886012
:1051E000A07803280AD1A07A000200B2E17A08432D
:1051F0003B49088020213B48FDF709FB00BFC5E67D
:1052000010B504463848007838B9AA2C05D10120D9
:1052100035490870354804705DE03348007801284E
:1052200007D1AF2C05D102202F4908702F484470B8
:1052300051E02D480078022807D1F12C05DA03202F
:10524000294908702948847045E0274800780328D8
:105250000CD1322C0ADA0420234908702348C47088
:105260002348047000202349087034E01E48007869
:10527000042819D11E480078002815DD1C48007844
:10528000401E1B4908701B4800781A490978491CC0
:10529000184A1170001D15490C5415480078D0B9F2
:1052A00005201149087016E00F48007805280FD135
:1052B00000200D4908700F480078001D0B490C5460
:1052C0000C480078401DC1B20848FFF749FE02E0D3
:1052D00000200549087010BD200C0020040C00209F
:1052E000E000002000000240E4000020D20B00207B
:1052F000E2000020E3000020EE48008801280AD1E7
:105300009FEDED0AED4880ED000AB9EE040AEC4885
:1053100080ED000A45E0E748008802280AD19FEDA9
:10532000E60AE64880ED000AB1EE040AE44880EDA2
:10533000000A36E0DF48008803280AD19FEDE10A21
:10534000DE4880ED000A9FEDDC0ADD4880ED000AB2
:1053500027E0D848008804280AD19FEDDB0AD74807
:1053600080ED000A9FEDD40AD54880ED000A18E0D0
:10537000D048008805280AD19FEDCF0ACF4880ED9C
:10538000000A9FEDCD0ACE4880ED000A09E09FEDAE
:10539000CA0ACA4880ED000A9FEDC70AC84880EDD6
:1053A000000A70474FF08040406AC8490968401AB7
:1053B00000EE900AF8EE600A9FEDC51AC0EE811A61
:1053C000B0EE610A4FF08040406AC0490860704703
:1053D00010B5FEF737FD10BD10B52DED028BB0EE08
:1053E000408AFBF78CFBBB4890ED000AF0EE401AB8
:1053F0009FEDB92AB949BA48BA4A92ED001ADFEDD1
:10540000AE0AB0EE480A00F099F9B74880ED000AFC
:1054100090ED000AA948D0ED000A30EE600AB348CA
:1054200080ED000AB04890ED000AA448D0ED000AD3
:1054300030EE200AAC4880ED000A90ED000AB5EE8F
:10544000C00AF1EE10FA18D20121A948FDF7D4F9EB
:105450000221A748FDF7D2F9A34890ED000AB1EE6A
:10546000400A80ED000A4FF48051A248FDF7C4F9CC
:105470000421A148FDF7C2F910E001219C48FDF785
:10548000BDF902219A48FDF7B7F94FF480519948C8
:10549000FDF7B4F904219848FDF7AEF9934890ED73
:1054A000000AB5EEC00AF1EE10FA10D24FF48051A6
:1054B0009048FDF7A1F904218F48FDF79FF98B482B
:1054C00090ED000AB1EE400A80ED000A08E04FF4CA
:1054D00080518848FDF792F904218748FDF78CF93F
:1054E000864890ED000A00F053FADFED760AB4EE3C
:1054F000E00AF1EE10FA11D27B4890ED000ABDEE01
:10550000C00A10EE100A7E494863784890ED000A00
:10551000BDEEC00A10EE100A886303E0002078494F
:1055200048638863BDEC028B10BD10B52DED028B76
:105530004FF08040406A73490968401A00EE100A33
:10554000B8EE400ADFED620A80EE201AB0EE418A22
:105550004FF08040406A6B4908609FED6B2A6B49B1
:105560006B48664AD2ED001A554A92ED001ADFEDFB
:10557000520AB0EE480A00F0E1F8B1EE400A654880
:1055800080ED000A644890ED080ADFED640A20EE21
:10559000200AF0EE401A9FED622A624962485D4A95
:1055A00092ED001ADFED440AB0EE480A00F0C6F8AA
:1055B0004C4880ED000AFFF79FFEB0EE480AFFF767
:1055C0000BFFBDEC028B10BD10B52DED028B4FF023
:1055D0008040406A55490968401A00EE100AB8EE4A
:1055E000400ADFED3B0A80EE201AB0EE418A4FF010
:1055F0008040406A4D490860FDF732FDB0EE480A30
:10560000FDF7ACFF4448D0ED063AB0EE633AD0ED7A
:10561000053AF0EE632AD0ED043AB0EE632AD0EDFD
:105620000C3AF0EE631AD0ED0B3AB0EE631AD0EDFF
:105630000A3AF0EE630AF6EE003A68EE233AB0EE6C
:10564000630A3B4A2D493B48FEF77AFCBDEC028BCE
:1056500010BD10B538480068401C3749086008463E
:10566000007800F0010008B9FFF7AEFF324800688B
:105670000521B0FBF1F201FB120008B9FFF755FF5D
:105680002D4800680A21B0FBF1F201FB120008B9B5
:10569000FFF79EFE284800681421B0FBF1F201FBE1
:1056A000120008B9FFF77EFE23480068FFF7A5FB4C
:1056B00010BD0000E00000200000000000010020FC
:1056C000FC00002000004842000048C20C010020FD
:1056D000002474491809002000000042580C0020E2
:1056E000040C0020F0000020F4000020F80000204E
:1056F0000004024000080240000C02409800002014
:10570000000001400801002000007A44C40C002081
:105710003C0C0020EC0000205009002098FA793D54
:105720000080BB44A00C0020200C002004010020BD
:105730009C00002094000020E8000020F0EE402AA9
:10574000B0EE603AD0ED053AF5EEC03AF1EE10FA5F
:1057500002D2DFED8D3A0DE0D0ED053AB7EE004A0A
:10576000F4EEC43AF1EE10FA02DDF7EE003A01E091
:10577000D0ED053AC0ED053AF5EEC02AF1EE10FA8B
:1057800002D1DFED813A03E0B7EE004AC4EE223ADF
:1057900091ED024A31EEC44AFFEE004A24EE244A5B
:1057A00063EE843AC1ED033A71EE613AC1ED003A1D
:1057B000F5EEC02AF1EE10FA02D1DFED733A03E004
:1057C000B7EE004AC4EE223A91ED004AD1ED014A0B
:1057D00034EE644A63EE843AC1ED043AD0ED023A05
:1057E00091ED044A63EE843A90ED034AD1ED034A09
:1057F000F0EE630A44EE240AD0ED043A9FED634ACA
:1058000063EE843A23EEA24AF7EE004AC4EE843AED
:10581000B7EE004A73EE843AF7EE004A84EEA34AEC
:10582000D1ED053A70EEE34AD1ED053A44EE243A63
:10583000C1ED053AD1ED003A90ED034AD1ED034AAE
:1058400044EE243A91ED064A03EEA24A81ED064A5F
:10585000D1ED063AB1EE424AF4EEC43AF1EE10FA56
:1058600002D2F1EE423A0BE0D1ED063AF4EEC23A42
:10587000F1EE10FA02DDF0EE423A01E0D1ED063A27
:10588000C1ED063AD0ED003A91ED004A63EE843A5C
:1058900090ED064A44EE033A90ED054AD1ED054AF3
:1058A00044EE243A90ED054AF7EE004A34EEC44A3D
:1058B00044EE203A90ED014AD1ED064AB0EE630A7B
:1058C00004EE240AC1ED021AD1ED003AC1ED013A0D
:1058D0007047F0EE402AB0EE603A71EE610AC1ED19
:1058E000000AF5EEC02AF1EE10FA02D1DFED260A29
:1058F00003E0F7EE003AC3EEA20AD1ED003A91EDD3
:10590000014A73EEC43A60EEA30AC1ED040AD1ED78
:10591000060AD1ED003A43EEA20AC1ED060AD1ED26
:10592000060AF1EE423AF4EEE30AF1EE10FA02D280
:10593000F1EE420A0BE0D1ED060AF4EEC20AF1EEF6
:1059400010FA02DDF0EE420A01E0D1ED060AC1EDE7
:10595000060AD0ED000AD1ED003A60EEA30AD0EDC0
:10596000023A91ED044A43EE840AD0ED013A91EDFA
:10597000064AB0EE600A03EE840AC1ED021AD1EDC8
:10598000000AC1ED010A704700000000C3F5C840DD
:10599000F0EE400AF5EEC00AF1EE10FA02DBB0EECE
:1059A000600A7047B1EE600AFBE700B5B0EE403A1E
:1059B000B0EE602AB5EEC03AF1EE10FA04D0B5EEC2
:1059C000C02AF1EE10FA02D19FEDFB1A99E0B0EE79
:1059D000430AFFF7DDFFF0EE403AB0EE420AFFF770
:1059E000D7FFF0EE402AF4EEE23AF1EE10FA02D2DE
:1059F00083EEA24A01E082EEA34A9FEDF00AB4EEE4
:105A0000C04AF1EE10FA02D2F0EE441A2DE0DFEDBA
:105A1000EC0AB6EE000A14EE200AF0EE404ABDEEA3
:105A2000E40A10EE100A00EE100AB8EEC00A34EED6
:105A3000C00AF0EE404AE34901EB800191ED000A13
:105A4000F0EE401ADF4A411C02EB810191ED000AA1
:105A5000114601EB8001D1ED000A70EE600AB0EE54
:105A6000610A00EEA40AF0EE401AF4EEE32AF1EE29
:105A700010FA20DDB5EEC02AF1EE10FA0ADBB5EE21
:105A8000C03AF1EE10FA02DBB0EE611A39E0B1EE85
:105A9000611A36E09FEDCC1AB5EEC03AF1EE10FA7D
:105AA00004DB31EE610AB0EE401A2AE031EEC10AA1
:105AB000B0EE401A25E0B5EEC03AF1EE10FA10DB78
:105AC0009FEDC21AB5EEC02AF1EE10FA04DB31EEFA
:105AD000610AB0EE401A14E031EE210AB0EE401A2D
